:020000040800F2
:10000000480E0020B5010008E1010008E3010008E6
:1000100000000000000000000000000000000000E0
:10002000000000000000000000000000E5010008E2
:100030000000000000000000E70100086927000838
:10004000EB010008EB010008EB010008EB010008E0
:10005000EB010008EB010008EB010008EB010008D0
:10006000EB010008EB010008CD2000080D2100087D
:10007000B51E0008EB010008EB010008EB010008C9
:10008000EB0100080000000000000000EB01000888
:1000900000000000EB010008EB010008EB01000884
:1000A00000000000EB010008EB010008EB01000874
:1000B000EB01000800000000EB0100080000000058
:1000C00000F002F800F04AF80CA030C808382418F4
:1000D0002D18671EA246AB4654465D46AC4201D180
:1000E00000F03CF87E460F3EB6460FCC0126334268
:1000F00000D0FB1A3343A246AB461847AC69000058
:10010000CC6900000023002400250026103A01D30A
:1001100078C1FBD8520700D330C100D50B607047BF
:1001200010B5662902D105F0ADFB10BD692902D1D9
:1001300000F0BAF810BD782902D100F0EBF810BD3C
:10014000002010BD1FB501F025FA04000020002199
:1001500005F02EFBE0601FBD10B510BD01F002FEE2
:100160001146FFF7EFFF04F07FFC01F01AFE03B425
:10017000FFF7F2FF03BC01F06BFE000070B505460F
:100180000C46164602E00FCC0FC5103E102EFAD2D8
:10019000082E02D303CC03C5083E042E07D301CC9E
:1001A00001C5361F03E021782970641C6D1C761E82
:1001B000F9D270BD104880F30888104810490160DA
:1001C00010480168090E104A914205D10F480C49A8
:1001D00001600F480F4901600F4880470F480047F2
:1001E000FEE7FEE7FEE7FEE7FEE7FEE70C480D4907
:1001F0000D4A0E4B70470000480E00206020024060
:1002000001000000040000001F0000001810024060
:10021000000001400000000089270008C10000081C
:1002200048080020480E0020480A0020480A002004
:100230000FB41CB5074B06AA7B446946009005988D
:1002400001F07BF90020694601F08AF91CBC08BC6A
:1002500004B018472513000070B50446856900688E
:10026000C10601D5302600E02026C00707D070BDAA
:1002700062683046A1689047206A401C20626D1E6B
:10028000F6D570BD70B5044685690078C00707D102
:1002900070BD6268A16820209047206A401C2062DF
:1002A0006D1EF6D570BD0000F7B5002575291068E4
:1002B000009914A611D0C046C046002802DA404278
:1002C00011A608E0009909688A0701D50FA602E087
:1002D000490704D50EA6012501E0C046C046009F8F
:1002E0000024243704E001F040F930313955641C12
:1002F0000028F8D12B4632462146009800F0B6FE81
:10030000FEBD0000000000002D0000002B000000DA
:100310002000000070B504460D4621461068C04616
:10032000C0462188090502D50F4A7A4402E00E4AE8
:100330007A440E3223460021243305E006070009E3
:10034000360F965D5E54491C0028F7D120780023B3
:10035000000705D5702D03D0002901D002231132EA
:10036000204600F083FE70BD66550000F3B50446DC
:10037000002081B020622046E168884700287DD0B7
:10038000252802D06268A16883E0454F00257F449C
:100390002046E16888472028064608DB312E06D231
:1003A000B81920380078002801D00543F0E7A807E5
:1003B00001D5042085430020E0610746A0612A2E74
:1003C0000AD0304605F0ECF9002827D0B800001913
:1003D000303E0090866119E00298BA00121902C8F6
:1003E000916102902046E1688847012F064617D1A7
:1003F000E06900281FDA202085431CE000980A21CC
:100400008069484300998019303888612046E16846
:100410008847064605F0C4F90028EFD1012F0AD01D
:100420002E2E08D12046E168884706462020054345
:100430007F1C022FC3DBA069002803DA4042A061C1
:1004400001200543E80701D010208543002E24D069
:1004500030464138192803D80120C0020543203610
:10046000204625603146029A1546FFF759FE0028BE
:100470000CD0012807D0ED1DE80800E00DE0C00019
:100480000830029077E72D1D029574E762683046C8
:10049000A1689047206A401C6CE7206AFEBD0000FE
:1004A0002A55000030B5441C03E00178401C0029A7
:1004B0000DD08107F9D10B4BDD0104C8D11A91434E
:1004C0002940FAD0001B0A0603D0C01E30BD001B15
:1004D00030BD0A0401D0801E30BD0902FCD0401E90
:1004E00030BD000001010101F8B5042A2CD38307B7
:1004F00012D00B78491C0370401C521E83070BD08E
:100500000B78491C0370401C521E830704D00B78E3
:10051000491C0370401C521E8B079B0F05D0C91A43
:10052000DF002023DE1B08C90AE0FFF727FEF8BD25
:100530001D4608C9FD401C46B4402C4310C0121F84
:10054000042AF5D2F308C91A521EF0D40B78491CBC
:100550000370401C521EEAD40B78491C0370401CE7
:10056000012AE4D409780170F8BDD2B210B51302A3
:100570009A1813049A1800F001F810BD01E004C0A5
:10058000091F0429FBD28B0701D50280801CC907F3
:1005900000D00270704700290BD0C30702D0027050
:1005A000401C491E022904D3830702D50280801C07
:1005B000891EE3E70022EEE70022DFE782078B07D0
:1005C0009A423FD170B5920F0AD0032402780B787B
:1005D000401C491C002A33D09A4231D12042F5D127
:1005E000214EF40104C808C9951B9543254018D134
:1005F0009A420FD104C808C9951B9543254010D1D4
:100600009A4207D104C808C9951B9543254008D1D3
:100610009A42E7D012BA1BBA01209A4200D2404255
:1006200070BD12BA1BBA2DBA18241000E040190090
:10063000E140401A05D12E00E64002D1083CF4D139
:10064000D01A70BD02780B78401C491C002A09D0D2
:100650009A4207D102780B78401C491C002A01D02D
:100660009A42EFD0D01A704701010101002203091C
:100670008B4273D3030A8B4258D3030B8B423CD378
:10068000030C8B4221D312E003460B437FD400229C
:1006900043088B4274D303098B425FD3030A8B4216
:1006A00044D3030B8B4228D3030C8B420DD3090296
:1006B000FF2212BA030C8B4202D31212090265D038
:1006C000030B8B4219D300E0090AC30B8B4201D301
:1006D000CB03C01A5241830B8B4201D38B03C01A48
:1006E0005241430B8B4201D34B03C01A5241030BBF
:1006F0008B4201D30B03C01A5241C30A8B4201D370
:10070000CB02C01A5241830A8B4201D38B02C01A1A
:100710005241430A8B4201D34B02C01A5241030A91
:100720008B4201D30B02C01A5241CDD2C3098B4276
:1007300001D3CB01C01A524183098B4201D38B01F3
:10074000C01A524143098B4201D34B01C01A524196
:1007500003098B4201D30B01C01A5241C3088B42DB
:1007600001D3CB00C01A524183088B4201D38B00C6
:10077000C01A524143088B4201D34B00C01A524168
:10078000411A00D201465241104670475DE0CA0F3F
:1007900000D04942031000D3404253409C460022FF
:1007A00003098B422DD3030A8B4212D38901FC2209
:1007B00012BA030A8B420CD3890192118B4208D3DF
:1007C000890192118B4204D389013AD0921100E041
:1007D0008909C3098B4201D3CB01C01A5241830955
:1007E0008B4201D38B01C01A524143098B4201D382
:1007F0004B01C01A524103098B4201D30B01C01AAD
:100800005241C3088B4201D3CB00C01A5241830826
:100810008B4201D38B00C01A5241D9D243088B427C
:1008200001D34B00C01A5241411A00D20146524135
:10083000104663465B1001D34042002B00D549426D
:10084000704763465B1000D3404201B5044900285D
:1008500002DC491C084000E00846C046C04602BD14
:10086000FFFFFF7F70477047704700000246C80FC8
:10087000C00781434B0030B54B405B009B0D20D03F
:100880001923DB06C91801231B05994220DB032429
:10089000A40704251346AB400BD3002B04D1EB0671
:1008A00013409B00E34204D401246407002312197F
:1008B0005941FF231B0599420BD2C9000143500F38
:1008C00009E0CB0204D501430803024305D00548E3
:1008D00030BDFF21C905084330BD08460721090581
:1008E000884330BD0000C07FF0B5F94D0C091E09EA
:1008F0002C402E402F468BB0A7437DD0B543FCD073
:10090000002E7AD0002CFCD00D465D40ED0F254323
:10091000AC1BFF25AD0464190894C502440DC9023F
:100920002143500DDC0204430120C007014304436E
:10093000D2020191200C110C00958C460104234633
:100940008B430A9161460904E24D8A430991010AE9
:100950007D4449198039097805464D4301266D18B3
:10096000F605751B6943C90C640B891C4C4364185C
:10097000B5012C1B250C2E04B4434C434D43210CD4
:10098000691889090591009DE90701D00121C9076E
:1009900004912C4601996708CD072F434C08059D0B
:1009A000E10B4D432D0C29466646754302950D46D5
:1009B00045432E46029D7D1BB44100950D465D4387
:1009C00001942C0C2F040D465543AE462D0C3D438F
:1009D000029503947546049C2D04641B049406D26E
:1009E000029C039D641C002675410395029401AC92
:1009F00070CC009F7D1B01E03EE162E1B44109043F
:100A00000095079101940599A4086143090C0C46CF
:100A10004443650BE7040C4666467443A646640BE4
:100A20003C43039502947446049DE4042C1B0494F7
:100A300006D2029C039D641C002675410395029416
:100A400001AC70CC009F7D1BB44101940C465C430B
:100A50000095650FE7000C465443A646640F3C43DF
:100A6000039502947446049DE4002C1B049406D262
:100A7000029C039D641C002675410395029401AC01
:100A800070CC009F7D1BB441AE09AF06049DC90028
:100A9000AD092F43049DA406AD060495079D34437C
:100AA00069180791059DE10B4D432D0C29466646BB
:100AB000754302950D4645432E46029D7D1BB4416C
:100AC00000950D465D4301942C0C2F040D465543B3
:100AD000AE462D0C3D43029503947546049C2D04AF
:100AE000641B049406D2029C039D641C002675417D
:100AF0000395029401AC70CC009F7D1BB44101941E
:100B00008C050694079C890A611800950791019C41
:100B10000599A4086143090C0D464543680BEF0491
:100B20000D46644665436C0B3C43049FED047D1BFE
:100B3000AC4602D20025641C6841009E019D371B13
:100B400085410846584301950C46460FC50054435D
:100B5000600F28436546E4002C1B02D20025401C90
:100B60006E41019D3F1AB5412846BD0980062843C4
:100B70008446A009BF064E020699A40676180743CC
:100B8000079D002068410A99079019430020099B9E
:100B900000906046FF1913434041E20F64003A435E
:100BA000A4460446D71A8C41A04203D901200090E4
:100BB00020463A46C70F941840416246D20F22435E
:100BC000644664000494009CBE466400D71AA446A0
:100BD000044602978C417746002F01D1A04204D9E8
:100BE0006046401C8446029A2046C40FA6469418CC
:100BF0004041049A0546D20F224364466400D31A4A
:100C00008D417146002901D1A84202D928461A46D1
:100C1000641C10430122002800D01643610200200A
:100C2000079B891904465C410223002C02DB49180A
:100C300013466441089DCE0A2D145D194B056705C6
:100C4000E10A2C050D1908993E43C9076940002B9C
:100C500008D0934006D30022761C5141002B01D1CD
:100C6000760876001C4A002D43DB154241D0AA438A
:100C70003FD030460BB0F0BD06180D464D41174C25
:100C80007642AC411AD395181C465C41134A6D421A
:100C9000A24113D3012252054C00D4420AD15C0078
:100CA000D4420BD04B4002D592021143E2E74900F7
:100CB0004908DFE75940C90FC90718E00020084973
:100CC000D8E7054801420DD10342F7D0F2E7000012
:100CD0000000FF07794F00000000F07F0000E0FFF8
:100CE0000000F87F114859400143C01241400020E4
:100CF000C0E70123089A9B069A4205DC03225207AB
:100D00008918C90FC907B5E7052252078918074A8C
:100D10001143D2125140ADE770B515461C4602464C
:100D20000B4628462146FFF7DFFD70BDFFFFFF7F22
:100D30000346CA02400D10B510430A1504D0012421
:100D4000E4072043002A05DB0A4CA21A04D4D04051
:100D5000FF2A00DD002010BD4A00002B01D0012039
:100D600000E00020101801225205D042F2D8C81726
:100D7000C04310BD1E0400001F22030C02D10F222D
:100D8000000402D0030E03D004E0002001467047A7
:100D90000002083A030F01D10001121F830F01D195
:100DA0008000921E002801DB4000521E12055118DF
:100DB0004205C012411810467047C10FC90700D044
:100DC0004042012292071143D6E701218907D3E768
:100DD000F0B58B4C0F09254689B0BD437BD01D096A
:100DE0002646AE43FAD00E465E402740F60F3E43FD
:100DF000254071D024012142FBD0FF24AD19A40469
:100E00002D1B039501252D05DB02DB0AC9022B43AF
:100E1000C90A29431E010901040F130F05012143CB
:100E20001701880B820391432D098C46A90B1E43A1
:100E30008A039543B30B9A0396433F09BA0B940375
:100E4000A74302962E467E430497B6464E19D719FD
:100E50000C460196544305977E43371B7646BF1BCD
:100E60003601B646BE0B361900967646BC043719D5
:100E7000009C01D3641C00946400002F01D0012663
:100E80003443029E049F754366467E430496760073
:100E900034196E0034190094029C019E1C1966439B
:100EA000751BAE46069465464519059C05956C4331
:100EB000594375460891691A0191049E01465143B0
:100EC000A41B0491611A009C0791E10605D06109F9
:100ED0000122114302E072E06EE06109089D0027E3
:100EE0002C0A2D066918049D7C412A0A2D066918D2
:100EF000019D6241AC0DAD026D185441079A910DF0
:100F0000920255196141029A644658435443069B24
:100F1000059A5A43121A131B9A0E9B015B187A41C9
:100F2000010B0005C3185141220A200644195A41F9
:100F30009A4200D2491C01204002814203D315236A
:100F40000226F64302E014230326F6432020C51AA6
:100F5000A9401746AF40DA400A4320460399D840DB
:100F60000914731819055118039A3843D2075140D0
:100F7000AC4009D00122944006D30022401C5141CC
:100F8000002C01D1400840001E4A934212D3012296
:100F900003989206904207DB0520400709181A487B
:100FA0000143C012414004E0032040070818C10F6C
:100FB000C907002009B0F0BD0020F107FAE70518C5
:100FC0000C464C4111486D42A04115D394181A4665
:100FD0005A410E48644290410ED301204A00400518
:100FE000824209D35A00824206D35940C90F084AA7
:100FF000C90700201143DDE700200649DAE70000B9
:101000000000FF07FE070000FFFFFF7F0000E0FF7A
:101010000000F07F0000F87F0121C905012341187D
:1010200042001B06D3185B0E0AD0C1100722D2065D
:10103000891840075242D14201D5520089187047A1
:10104000090208D50146002A03D0C10FC9070020B4
:10105000704710467047420202D000200249704794
:10106000072109050143F4E70000F87FFFB50446B6
:101070000D4681B0243000902168880604D51022E6
:10108000E0699143216000E00120A84201DD471B97
:1010900000E000270498A1697A191018081AA061C5
:1010A0002078C00602D42046FFF7D6F8002608E0D4
:1010B00003986268A168805D9047206A401C761C96
:1010C000206204988642F3DB2078C0060AD52046C9
:1010D000FFF7C2F806E06268A16830209047206AF6
:1010E000401C206238467F1E0028F4DC07E0009890
:1010F0006268A168405D9047206A401C20622846D3
:101100006D1E0028F3DC2046FFF7BCF820780006AF
:1011100002D5022005B0F0BD0120FBE7FFB50C466B
:101120001E468FB003CA089009914F007D0D00D173
:101130006D1E002108460020C0460321099A89053A
:101140000840002A03DA8200801840080840800D19
:1011500001280A9002DD0020C0430A900898074346
:101160000DD0F048F0492818484307141898002873
:101170001DD07542291E1DDD0A9842421BE01898B9
:10118000012802D00020302104E00020F24305E0D5
:101190002154401CB042FBDB30460022189B00214A
:1011A00021540F998B600A60486013B0F0BDBD1BDD
:1011B0006D1CDFE70A9A002900DA69420BA800F0EB
:1011C0006FFA0BAB07CB03AB07C30899099800F084
:1011D000D3FA6B4607C30146D4480918002D009185
:1011E0000BDDD24903980A9A49424018002303A90B
:1011F0000390684600F030FD08E003990A9A002346
:10120000081803A90390684600F0D0FC6B4607C39A
:101210000004000C03D00020C043410800E0104649
:10122000189A002A03D00022009215461EE0751E6F
:1012300005D400F0B3F9303262556D1EF9D50122A4
:101240000843079602D000227F1C04E02078302853
:1012500001D100227F1E002A069787D01EE0112DA3
:1012600007DA00F09BF9303262556D1C02460A43E2
:10127000F5D1084303D00098002819D00EE00021D2
:10128000681E05E0235C625C63542254401E491CC6
:101290008142F7DBA81B401E07950690079A189914
:1012A0000020A0540F98079B069A81600CC07CE731
:1012B00011260020189059E7D21DF0B50D460446BE
:1012C000D10893B0C90003C90C900D9104F03AFA0B
:1012D00002460D98C00F01D02D2007E0206881073D
:1012E00001D52B2002E04007C00F4001032A0F90D8
:1012F00001D0072A05DB03462946204600F08CF979
:101300000EE12078800601D5E76900E0062728462F
:10131000652D04D0662814D0672D69D12DE00020FA
:10132000112F009001DB112300E07B1C0CAA03A904
:1013300010A8FFF7F3FE1199002610987D1C0E915E
:1013400042E001203B460CAAC0070B900120009010
:1013500003A910A8FFF7E2FE119D1298109900262C
:1013600000280E9501D1781C0D18781B02D4464236
:101370007D1C761EE81B00903AE0012F00DA012761
:101380000020112F009001DD112300E03B460CAA44
:1013900003A910A8FFF7C2FE11993D461098002638
:1013A0000E91217809070BD40E99A94200DA0D4657
:1013B00003A9012D04DD4A19203AD27F302A06D034
:1013C000B84201DA011D04DA012100910FE06D1E1F
:1013D000EFE7002802DC86192D1A03E0411CA94220
:1013E00000DD0D46801B401C00900120C0070B90C3
:1013F0002078000705D40098A84202DB0020C043F3
:10140000009069460020C8720B98012102AF033793
:10141000C907884225D0022010902B2011900B98EC
:1014200000280BDA40420B902D20119006E00B981B
:1014300000F09BF830317F1E0B9039701099481ED8
:1014400000291090F3DC0B980028F0D111987F1E32
:1014500038702088000501D5452000E065207F1EFA
:10146000387001A8C01BC01D0B900F98002800D039
:10147000012041190098C01709180B980818A16994
:10148000081A401EA0612078C00602D42046FEF74C
:10149000E3FE0F98002805D06268A1689047206A93
:1014A000401C20622078C00625D52046FEF7D4FED9
:1014B00021E0002E07DB0E98B04204DD03A862682D
:1014C000805DA16802E06268A16830209047206AD0
:1014D000761C401C20620098401E002800900AD113
:1014E00000F058F8C06862680168405CA1689047E5
:1014F000206A401C206228466D1E0028D9DC07E0C7
:1015000062683878A1687F1C9047206A401C20627E
:101510000B99481E00290B90F2DC2046FEF7B2FE24
:10152000032042E601FCFFFF104D0000E1DFFFFF5A
:1015300001694A1C02610878704700B58FB00291BA
:1015400000210591054901937944039111460490C6
:101550006846FEF70BFF0FB000BD0000E5FFFFFF80
:101560000A681070521C0A60704701468008081A09
:1015700002091018020A1018020C1018C008820084
:1015800012185200891A01E0401C0A390A29FBD2BC
:101590007047000000487047B00600200B4670B549
:1015A000024689078008084319469D08141AA94174
:1015B00025090807054308092C194841250A010691
:1015C0000D43010A2C194141200C0D0428430D0C38
:1015D00000194D41002140194D41C00869070843D9
:1015E000E908840F8D002543840024184D412419F7
:1015F0006D41121BAB4107E00925ED432C11521937
:1016000063410024401C61411C460A250026551BED
:10161000B441F1D270BD0000F8B51F460446012365
:101620000068DB02032601461840072A05DB002874
:1016300001D017A506E017A504E0002801D016A5E3
:1016400000E016A5102081432160A069C01E002F74
:10165000A06101D0401EA0612046FEF7FDFD002FD5
:1016600009D038466268A1689047206A401C206211
:10167000C01C206206E0206AFAE762682878A16848
:101680006D1C9047761EF8D22046FEF7FBFDF8BD94
:101690004E414E006E616E00494E4600696E660016
:1016A000F7B516468AB0334878446C4603467C3317
:1016B000C06F5A689B680DC42E487844763003ACDE
:1016C0000DC80DC43720C001081837211B30FEF7A4
:1016D000DBFF05460C46803D1B3C02D564420120E1
:1016E00000E000200027099010E0E0070CD00C205B
:1016F00020497843794432464C39411868460123E1
:1017000000F054FA6B4607C364107F1C002CECD128
:10171000184F7F442E3F16E0E80712D02001C01971
:101720000EC80691089307920068F04201D19819FB
:1017300008903246012306A903A800F037FA03AB4C
:1017400007C36D10641C002DE6D10998002806D04F
:1017500032466946012303A800F07EFA05E0012322
:101760003246694603A800F021FA0A9B07C30DB070
:10177000F0BD0000A4420000034640000A4610B538
:10178000400D0BD00121C9070F24A40200191C032E
:1017900064082143540D2143D20207E000210120B7
:1017A000F2E7D40F490021435200401E0029F8DA25
:1017B000DB0FDB07184310BDFFB50D46144685B09F
:1017C0004868516803F0A5FF00910190A868A168DE
:1017D00003F09FFF02910390A868616803F099FFEE
:1017E000029A12188242029201D2012000E00020E7
:1017F000019A0B18D2180028019202D08A4202D90D
:1018000003E08A4201D2012000E00020009908187C
:1018100000906868A16803F07CFF029A1218824267
:10182000029201D2012000E00020019A0B18D21888
:101830000028019202D08A4202D903E08A4201D2F2
:10184000012000E000200099081800902868216815
:1018500040004900400849084018FA49471814E078
:1018600001994000C90F0843009001980299400077
:10187000C90F08430190029803994000C90F08431B
:101880000290039840007F1E039000980028E7DA3A
:101890000898002801D0EC4E00E00026B74201DA9B
:1018A000012000E00020002804902AD0F71BF80651
:1018B000C00E15D0029B2021091A039A8B401A43AF
:1018C0000392029A019BC2408B401A430292019AF2
:1018D000009BC2408B4000991A430192C140009185
:1018E0007B110DD06F460320C11A03D50021820061
:1018F000B95003E08A008100BA587A50401EF3D5EF
:10190000374603980299002800D001200143089827
:101910000291002808460CD0002800D0012001992F
:10192000019A490508430121D20AC902D202019253
:1019300000E001210E9B0122D207012B02D0002BD7
:1019400003D013E0002807D120E0904204D8904251
:101950000CD1019B0B4209D0019B5918019105D173
:101960000099491C009101D17F1C009200280DD0E4
:10197000102108460020C0460498002806D00F9881
:10198000002803D0082108460020C04628682168A6
:10199000019B009A4840C10F0598C90739430EC002
:1019A00009B0F0BDFFB587B0099A08980899536847
:1019B00092684068896896460022039317469446C9
:1019C000089A12685300099A5B081268520052087C
:1019D0009A1A9E4BD4180A9A002A01D0352200E0A8
:1019E000402206920022012315460492DB0705934C
:1019F00024E0002D05D175460346039E4D1BB341DF
:101A000009D375466646039B491B049D9841059B77
:101A10007519AC465F4163463B4308D0059B049E65
:101A2000DD0776082E435B080496059301E0521EFD
:101A3000641EC50FED0749184041521C069B9A428F
:101A4000D7DB002D04D17546039A6B1A824101D26F
:101A500003200CE0039A0B466B404240134303D033
:101A6000014303D0012002E0022000E00020614693
:101A700001910021009702910A99002905D0614641
:101A800040020143704B019102E080070023029065
:101A90009C4201DA012000E0002007003AD01A1B26
:101AA000D006C00E15D0029D2021019C091AC54008
:101AB0008C402543029C8C4000D001242543019C8E
:101AC0000295009DC4408D4000992C430194C14073
:101AD000009154111DD06D460221002202290CD123
:101AE0000320001B07E0002804DB8600AE59002E0F
:101AF00000D00122401C0328F5DB081B02D588001A
:101B00002A5004E08000285810438A00A850491E3B
:101B1000E3D51C460A98002802980CD0002800D073
:101B200001200199019A490508430121D20AC902FD
:101B3000D202019200E00121109B0122D207012B69
:101B400002D0002B03D013E0002807D11FE0904201
:101B500004D890420CD1019B0B4209D0019B59182B
:101B6000019105D10099491C009101D1641C00929A
:101B700000280CD0102108460020C046002F06D0B7
:101B80001198002803D0082108460020C046089874
:101B90000999019A009B006809684840C10F07989D
:101BA000C907214382600AC00BB0F0BD00B585B003
:101BB000019300920A460146002302A8FFF7FCFDAC
:101BC00002A807C805B000BDFFB50A461F4685B08C
:101BD0000799019301230091014602A8FFF7ECFD4C
:101BE00002990398049ECA0F4900D20700920F225F
:101BF000490892028C1A0021002800DB0C4645009F
:101C000013486D08844214D3079A002A04DA441E4C
:101C10000026104DF64302E004460D460E46102104
:101C200008460020C046002F03D0042108460020AB
:101C3000C0462005E90A0843009908436905F20AED
:101C40001143ADE602C0FFFF013C0000FF3F000072
:101C5000FF070000FFFFFF7F00B585B001930092F2
:101C60000A460146002302A8FFF79CFE02A807C807
:101C7000A8E7FFB50A461F4685B0079901930123DF
:101C80000091014602A8FFF78DFE02990398049E79
:101C9000CA0F4900D20700920F22490892028C1AFB
:101CA0000021002800DB0C46450011486D088442E5
:101CB00014D3079A002A04DA441E00260D4DF64379
:101CC00002E004460D460E46102108460020C0469C
:101CD000002F03D0042108460020C0462005E90A51
:101CE0000843009908436905F20A114358E60000C9
:101CF000FF070000FFFFFF7F10B5FF231B06440016
:101D00009C421DD84C009C421AD80346124A0B43F1
:101D100007D4401A02D3EFF3008010BDEFF3008028
:101D200010BD081A03D3EFF30080904305E0EFF3F2
:101D3000008001219043C907084380F3008810BD4B
:101D40000D231B041A4204D01146002000F031F884
:101D500010BD00F045F810BD00000090004870472D
:101D6000900600207546FFF7F9FFAE46050069466C
:101D70005346C008C000854618B020B5FEF736FAB5
:101D800060BCB64600260027C0C5C0C5C0C5C0C5DA
:101D9000C0C5C0C5C0C5C0C5403D490849008D4645
:101DA000704710B50446C046C0462046FEF7DFF92E
:101DB00010BDC80212D54803400F002804D0C80344
:101DC000C043012188407047EFF300800001000903
:101DD00003210907084380F30088704700207047FB
:101DE00010B5024800F004F810BD00000000C07FEC
:101DF00010B50C461107090F092904D00A290AD089
:101E000008290CD104E011460820FFF7D2FF06E0B4
:101E1000510606D501E0510601D50120C007214633
:101E200010BDD10607D501010909CC084907000EEC
:101E30000006044309E0410F20024907000A01435C
:101E4000200E00061D22D14101430846E7E70000AD
:101E500001491820ABBEFEE726000200704770B5AE
:101E60008C180578401C6B075B0F01D10378401C70
:101E70002A1106D10278401C03E00678401C0E703F
:101E8000491C5B1EF9D12B0705D40023521E0DD42B
:101E90000B70491CFAE70378401CCB1A921C03E034
:101EA0001D780D70491C5B1C521EF9D5A142D8D378
:101EB000002070BD70470000B0B586B0164C2046BB
:101EC00000F020F801256802294600F00BFC0020F4
:101ED0000590A902029120210191A904049100908A
:101EE0006946204600F01AF82046294600F002F81C
:101EF00006B0B0BD4A1E9141426801239A43511871
:101F00004160704780B50449884200D080BD0120FF
:101F1000400202F0C7FB80BD0024014042680B4B29
:101F2000134043604A680B68134342681A43426097
:101F30008268074B134083600A694B6913438968C1
:101F4000194382680A4382607047C0460FBCFFFF96
:101F50008FF1F9FF10B50F22920244689443446058
:101F6000102B00D29B0242681A43426001228A4031
:101F7000C3689343C360C3681343C3600804800FFE
:101F800004D00E4801680C220A43026010BDC0460E
:101F90004A1E914109020122120283689343591893
:101FA000816070470C2100280A4600D10246034890
:101FB00003688B43134303607047C0460424014009
:101FC000F0B581B00925EC060821022620463246EC
:101FD00000F016FB20462946324600F011FB0A218C
:101FE0002046324600F00CFB1D4D0D21284632469E
:101FF00000F006FB0E212846324600F001FB0F21BF
:102000002846324600F0FCFA6E46304600F00EFBE1
:10201000144800902046314600F0AAFA01277802C1
:1020200030802046314600F0A3FAB80230802046C6
:10203000314600F09DFA780330802846314600F0A2
:1020400097FAB80330802846314600F091FAF80339
:1020500030802846314600F08BFA01B0F0BDC04612
:10206000000400480001031810B50E4800687D21E7
:10207000C90003F053FA411E080E00D0FEE70A48DB
:102080000A4A51600A490B6803400324A4071B193C
:102090000B6000239360072313600A6802400A6004
:1020A00010BDC046A8000020FFFFFF0010E000E0C8
:1020B00020ED00E081B000900348009901600168C4
:1020C0000029FCD101B070473408002010B501246C
:1020D000600200F067F8002812D0200200F040F8FB
:1020E0001A48007800280CD0194800F0A5FE1948BD
:1020F000007800F0C5FE184800F09EFE01F052FA8C
:1021000010BD144800781549087010BD10B50124A1
:10211000600400F047F8002812D0200400F020F8F6
:102120000A48007800280CD0094800F085FE0948CC
:10213000007800F0A5FE084800F07EFE01F032FABB
:1021400010BD044800780549087010BDA4070020A0
:10215000045B0008290800200A5B0008280800200A
:102160000F4908607047C046026801239A430A433A
:102170000260704780B5016801229143016000212F
:10218000016041608160C160C0B20838052103F080
:10219000C5F90F218140024802680A43026080BDF0
:1021A00004000240024909680840411E8841704706
:1021B00000000240002A03D002680A430260704710
:1021C00002688A4302607047B0B5114A1446103461
:1021D000036823400C7A8D7D25430C7C2C434D7C79
:1021E00025434C8A2C438D8A25430C8B2C434D8BE5
:1021F0002543ACB21C430460036813408A8B1A4326
:102200000260CA6842600A6882604968C160B0BD05
:10221000FF7FFFFFF0B58BB0019317460291044694
:1022200001252846294600F041FA2046FFF7A2FF83
:1022300003AE304600F01CF82020B0750020B082BC
:1022400030720990E803079001980690049702986D
:10225000039020463146FFF7B7FF022120462A4669
:10226000FFF7A8FF20462946FFF77EFF0BB0F0BD21
:10227000002181838161017201604160C16001615F
:102280008182817570470000F0B587B00C46074623
:102290000125EE02304603F041F921464143B142A7
:1022A00000D0FEE700237B49B44202D91E460691C6
:1022B0002AE00128029000D8029562080592012ABE
:1022C00000D805950026DD4A0D4601960497039334
:1022D000234673435B190693022C059B0D4610D3CE
:1022E0002F88974204D15B1EAD1C002BF8D109E06A
:1022F0000919761C029B9E42049F039B654DE7D102
:1023000002E0019E049F039BB042184600D006984D
:10231000002809D05F49884200D16048011B384637
:102320002246FEF7E1F800E0DC43204607B0F0BDAE
:10233000F0B587B00E4605460127FC02204603F0A3
:10234000EDF831464143A14200D0FEE7334639461D
:10235000059000264F4FA34230460497069327D896
:1023600005980128019000D8019158080390012890
:1023700000D803910020B14A3C46009019464343DF
:10238000DB1904930229039B02940FD32188914205
:1023900004D15B1EA41C002BF8D108E0069B029C14
:1023A000E418401C01998842E8D101E00098069B9E
:1023B0000599814200D0049E81421ED11C4600F046
:1023C000CBF8384600F06CF800F096F800F0C4F84E
:1023D000314800F065F800F08FF800F0BDF86408AF
:1023E00052D000262988384600F08EF8AD1CBF1C5C
:1023F000761CB0B2A042F5D346E0274CE01A8642E4
:1024000017D11F4600F0A8F8204600F049F800F068
:1024100073F800F0A1F87C0836D0002729883046F0
:1024200000F072F8AD1CB61C7F1CB8B2A042F5D308
:102430002AE01A48C01A05901C4600F08DF805984D
:10244000864214D1384600F02BF800F055F800F021
:1024500083F8640818D000272988304600F054F823
:10246000AD1CB61C7F1CB8B2A042F5D30CE06408CA
:102470000AD000272988304600F046F8AD1CB61C6B
:102480007F1CB8B2A042F5D300F036F8069807B02A
:10249000F0BDC04600780008007C000800800008FD
:1024A00010B518490B68022213430B604860086896
:1024B000402303430B600F4B0C1F2068C00708D15B
:1024C00020684007104607D42068C00603D50320C3
:1024D00002E0012000E004205B1C012801D1002B58
:1024E000EAD100220A6034212160002B00D10520AE
:1024F00010BDC04601F0FFFF0248016880220A4378
:10250000026070471020024010B5124A546801233F
:102510001C435460018000211068C00718460AD18E
:102520001068400704D41068C00603D5032002E0F9
:10253000022000E004204C1C012802D10E29214673
:10254000EAD100215160342111600F2C00D1052007
:1025500010BDC0460C2002400248034901600349F7
:10256000016070470420024023016745AB89EFCD2D
:10257000F0B583B0CB780F221C4602921440DD06E2
:10258000019301D58D782C4300910A8800263746A7
:1025900003E0361D7F1C082F0CD01546FD40ED07CB
:1025A000F7D02546B540029BB340016899432943C3
:1025B0000160EEE70099098800910D0A0026374670
:1025C00003E0361D7F1C082F0CD02946F940C907AF
:1025D000F7D02146B140029BB34042689A430A4378
:1025E0004260EEE70199482903D0282906D114302A
:1025F00000E010300168009A1143016003B0F0BDA3
:10260000B0B5082901D3242300E02023C45849078A
:10261000C90E0F258D40AC438A402243C250B0BD45
:1026200080680840411E884170470000024941808F
:10263000024901807047C04602040000FFFF00000D
:1026400000200449044A435C1354401C0C28FAD16E
:102650007047C046E8F7FF1F1D07002070B50178DE
:102660008278002A15D0FC220A400D4BD4588D07E1
:10267000ED0EFF26AE40B44340788001C0B2A840C2
:102680002043D0501F2008400121814005480160AF
:1026900070BD1F200140012088400349086070BDC3
:1026A00000E400E000E100E080E100E0054A0029EC
:1026B00003D01168014311607047116881431160B4
:1026C0007047C04614100240054A002903D0116823
:1026D0000143116070471168814311607047C04623
:1026E0001C100240054A002903D011680143116003
:1026F00070471168814311607047C046181002404E
:10270000154908680C2202400C2A01D0144800E048
:1027100012480A681206120F124B9A5CD0400968E0
:102720004905490F595CC8407047C0460A490868C6
:102730000C2202400C2A01D0094800E007480A6830
:102740001206120F074B9A5CD04009688904490FA2
:10275000595CC8407047C04604100240409C0000CD
:1027600000127A007F06002005480168002902D087
:102770000168491E016003480168491C01607047F7
:1027800034080020A0070020F0B589B0514E306811
:1027900001221043306070684F4901407160306819
:1027A0004E49014031609004316881433160C3205B
:1027B00000047168814371603068494901403160AB
:1027C0009F200004B060306802921043306030688F
:1027D0008007FCD5434C44482060444D28681021B4
:1027E0000143296028680721884328602068401E2B
:1027F0003F4902F093FE29680143296070687060C8
:1028000070687060032001900004716881437160FA
:1028100030683849084030602368002001461F4670
:10282000039006460491701C0590334D039C06E00E
:1028300031496D18641C002F079206901ED0402C61
:1028400018D008973746284605991E4602F066FEBE
:102850003346311A00D2C11A3E46089F8F42304695
:1028600000D806988F42224600D8079A8F42DFD3BD
:102870000F46DDE70499002906D009E000270792FA
:1028800006900299002903D1059804280646C9D16B
:10289000104A1068174B1840106007988006069978
:1028A000C9B209050143106808431060581C11683B
:1028B00001431160506801998843506050680221BB
:1028C0000143516050680C2101400829FAD109B038
:1028D000F0BDC046001002400CC0FFF8FFFFF6FE3E
:1028E000FFFF8F00A800002000A24A040020024041
:1028F00000366E01FFFF0F00001BB700F0B58DB072
:10290000009101900124E0022146FFF7EBFEED4D1E
:10291000284600F09BF80AAE304600F0D7F90027B1
:10292000B772378100983080B77001980B902846B5
:10293000314600F089F906AE304600F051F9042026
:10294000B07020023080B781778150201A49085A30
:10295000411E8841C000707207972846314600F03A
:10296000B7F82846314600F0DFF82846314600F037
:1029700009F92846214600F03DF820212846224644
:1029800000F09CF82846214600F056F802AE30468A
:1029900000F027F8A003B08108480490084802908E
:1029A000200403902846314600F00CF828462146C2
:1029B00000F03AF80DB0F0BDFE0500200010002038
:1029C000000800040A884B8813438A881A43CB887E
:1029D00013430A891A434B89134389891943416474
:1029E00070470021818141810181C18081804180C6
:1029F000018070474A1E9141426801239A43511851
:102A0000416070478A4001238B40016A994311431A
:102A1000016270470C2906D08A4004238B40016A6A
:102A200099431143016270474A1E91410268012394
:102A30009A435118016070474A1E9141C90301220F
:102A4000D203436C934359184164704780B51849C9
:102A500088420DDC01218A07904217D09A4A9042A1
:102A600018D0984A904222D1C80201F01BFE80BDC6
:102A70001049884212D09249884214D08F49884226
:102A800015D10120800401F00DFE80BD012001F070
:102A9000FFFD80BD022001F0FBFD80BD0120000490
:102AA00001F000FE80BD0120400401F0FBFD80BD6F
:102AB000FF3F01400040014041617047002A03D0C0
:102AC000C2680A43C2607047C2688A43C2607047E6
:102AD000B0B5826970239A430B78134383610A7AF5
:102AE0004B781343046A032294431C4304624B68EB
:102AF0004363744B984205D0704B984202D0704BA0
:102B000098420FD14B7A8C781C43036A0C25AB4357
:102B1000234303624B898989194312024368934313
:102B20000B434360B0BDC046B0B5072212038369B2
:102B300093430A7812021A438261026A30239A434D
:102B40000B7A4C781C432301134303624A68826367
:102B5000224A131F984200D0B0BD036AC024A34389
:102B60004C7A8D7825432C011C430462032080029B
:102B7000136883434889898901438800184310609A
:102B8000B0BDC04670B5C26970239A430B78134339
:102B9000C36103221302046A9C430B7A4D781D43E0
:102BA0002B02234303624B68C3630C4B1C1FA042E0
:102BB00000D070BD9402056AA5434C7A8E782643F6
:102BC00034022C43046210031A68824348898989BD
:102BD000014308011043186070BDC046042C014039
:102BE0000021817001804160816081817047000017
:102BF00010B501238B40046A9C4304620223D9412F
:102C0000032920D87944097949008F4401070F1519
:102C10008169702399431143816110BD0721090324
:102C200083698B4311021943816110BDC16970230F
:102C300099431143C16110BD07210903C3698B4347
:102C400011021943C16110BD0322120203689343AC
:102C50000A891A430260184A904209DD174A9042D5
:102C60001CD0174A904219D0164A904207D01BE058
:102C700001229207904202D0134A904214D1026876
:102C800070239A438B78134303600E4A904205D019
:102C90000A4A904202D00A4A904205D1026BFF23B1
:102CA0009A438B7AD21802634A68C26209888162A9
:102CB000012141617047C046FF2B0140004801409F
:102CC00000440140002C014000040040002101812B
:102CD000018081728170C94341607047F0B585B051
:102CE00005460124A0032146FFF7FCFC60042146B1
:102CF000FFF7EAFC01AF384600F006F90020387310
:102D00003872B871302038711820788101957D4D66
:102D10002846394600F052F8794E3046394600F0E0
:102D20004DF82846214600F011F83046214600F0C3
:102D30000DF8022728463946224600F00DF83046A5
:102D40003946224600F008F805B0F0BD826901233B
:102D50009A430A4382617047816902239943520072
:102D60000A43826170470000F0B581B000240E4D27
:102D70000E4E06E01821285D01F024FF241D282CAA
:102D80000FD0285DB18B814202D0F18B8142F5D109
:102D90002F19797801F038FFB8780028EAD104219A
:102DA000E9E701B0F0BDC0467E6A0008FE050020DC
:102DB00080680840411E88417047000070B50D468C
:102DC0000446C0693021884329790143E161E06903
:102DD00044218843A9790143E161E06903218843E3
:102DE000297A0143E161A069182188436989014377
:102DF000A161A06904218843297B0143A161414865
:102E0000844202D0FFF77CFC01E0FFF78FFC2968C9
:102E1000064E304602F082FB0009206229683046E7
:102E200002F07CFB0F210140616270BD00A24A04E8
:102E3000C9B2016070470000F0B581B00446007867
:102E400000281AD02E4D2F4EC7B230463946FFF714
:102E5000EFFF28463946FFF7EBFF01213046FFF729
:102E6000A7FF0028F9D001212846FFF7A1FF00287D
:102E7000F3D06078641C0028E6D101B0F0BDC046F4
:102E800070B506461F4C20463146FFF7D1FF1C4D5A
:102E900028463146FFF7CCFF01212046FFF788FF87
:102EA0000028F9D001212846FFF782FF0028F3D03F
:102EB00070BDC046F0B581B000291ED00C46054655
:102EC0000F4E104F00942C7838462146FFF7B0FF84
:102ED00030462146009CFFF7ABFF641E01213846B7
:102EE000FFF766FF0028F9D001213046FFF760FFA9
:102EF0000028F3D06D1C2004E4D101B0F0BDC04621
:102F00000044004000380140002101731822428132
:102F100001728171302101714B21C901016070473B
:102F20000021214A1378834204D0121D491C0A292A
:102F3000F8D10A2188001C490818408809280CD8B3
:102F40007844007940008744040B0F13171B1F239C
:102F50002B271648006880B27047002080B2704767
:102F60001248406880B270471048806880B270474D
:102F70000E48C06880B270470C48006980B2704744
:102F80000A48406980B270470848806980B270473B
:102F90000648C06980B270470448406A80B27047F2
:102FA0000248006A80B27047E459000818240140C2
:102FB000F0B5A7B00A4D2878801E092800D961E233
:102FC0004000C04678448088400087440B001F00C2
:102FD0002D0034005B028C00C700D500F300FA001E
:102FE000A4070020FFF72CFBF448FFF725FF1D2066
:102FF0000101F348FFF75EFFF248FFF71DFFF248BB
:103000000078002800D1EAE0F048E9E0F048FFF756
:1030100013FFF0A0FFF710FF5020F149085A0028D5
:1030200000D135E1EF4834E1EF480078002800D1C5
:103030008CE1EE488BE1EE48FFF7FEFEED4D0124FA
:1030400028462146FFF7F8FC60036863A863E8633D
:10305000E9480027077001F081F9FEF72DFFE74EE0
:10306000129414E0341861880125AB020026E4486C
:103070003246FEF76FFF2078129C3146DF4E01F09A
:10308000A1FDE048C5557F1C0A2F00D1A1E0B80082
:10309000315CFE220A400A2A01D1012216E0D04A00
:1030A00012888A42224611D0FD4A921C00252B46E6
:1030B0000F2D05D05D1C961C12888A423246F6D12F
:1030C0000F2B01D3002200E00122CC4EF44B1B8BCE
:1030D0005B1A59425941002A224600D00A46012A69
:1030E000C0D00025CDE7F548FFF7A6FE0024012556
:1030F000EB4EF34F03E0641C212C00D1C2E13E20D3
:1031000020400A2801D1012118E0A0B23188814273
:10311000294613D031463E46891C00231A460F2B00
:1031200005D0531C8F1C098881423946F6D10F2ADD
:1031300001D3002100E001213746D94EA0B2728AA6
:10314000121A504250410029294600D00146012957
:10315000D1D1E0B201F06CFA3855CCE7D148FFF795
:103160006BFED14800210170D0480170D048018029
:10317000D048017027B0F0BDC648FFF75DFEC64CD1
:1031800001212046FFF758FC00206063A063E06344
:10319000C2490860C24D28780424214601F012FD7E
:1031A000A878214601F00EFD2879214601F00AFD9C
:1031B00027B0F0BDB4480078002800D15FE1B348E3
:1031C00052E1BD48FFF738FEB9480021018027B021
:1031D000F0BD0121BB48FEF7DBFE27B0F0BDC448BF
:1031E000FFF72AFEC3480068FDF716FF1290119101
:1031F000C1480178109141780F918478C57806799B
:10320000477981790E91C1790D91017A427A837A59
:10321000C07A089109920A930B90109800900F9829
:1032200001A9F1C10E9806900D98079013ACB3490F
:103230002046129A119BFCF7FBFF2046FFF7FCFD8E
:10324000AF48FFF7F9FDAF48FFF7F6FDAE48FFF7CF
:10325000F3FDAE48FFF7F0FDAD48FFF7EDFDAD48DB
:10326000FFF7EAFDAC48FFF7E7FDACA0FFF7E4FD90
:10327000B0A0FFF7E1FDBDA0FFF7DEFDC3A0FFF7A3
:10328000DBFDC74886498022FDF72EF927B0F0BD47
:103290009348FFF7D1FD93480124047000BF00BF9D
:1032A00001780029FAD12878032800D0EAE07A4D85
:1032B00028462146FFF7C0FB7D2040016863A863D4
:1032C000E8637F4E2125304629462246FDF74DF919
:1032D000854F384629462246FDF747F98348294657
:1032E0002246FDF742F96E48058880480021129574
:1032F00003E0491C212900D1BAE0FE220A400A2A33
:1033000001D101231BE08AB29542234617D0204603
:103310003446634B9B1C002635460F2E05D06E1C91
:103320009F1C1B8893423B46F6D10F2D01D30023EF
:1033300000E00123264604466B4F6C48129D002B8B
:10334000D7D000227A5472544254D2E75F48FFF734
:1033500073FD00270124524D07E0002100290BD006
:10336000781CF9B22029074624D27E2038400A284A
:1033700008D101210029F3D153480078002814D046
:10338000042113E0F8B2298881422146E6D0A91C25
:1033900000231A460F2B05D0531C8E1C098881422E
:1033A0003146F6D10F2AE4D3D7E74821F8B201F02D
:1033B00009FCD5E728880022129029E08E620008D7
:1033C0002C040020DF6700089D0700208D6900089D
:1033D000B36400086C6F77736964652000000000B7
:1033E000FE050020D26800089C070020125D00083E
:1033F00093610008002C01407E060020E45900087B
:1034000000240140F406002001234A1C002B1ED09A
:103410001146FE220A400A2AF6D0CAB2904223463A
:10342000F3D020462C46AB1C00273E460F2F05D07C
:10343000771C9D1C1B8893422B46F6D10F2E01D37F
:10344000002300E00123254604461298DDE7204CC6
:1034500021702048FFF7F0FC2078052141431E48E9
:103460004018FFF7E9FC1D48FFF7E6FC27B0F0BD68
:10347000FF200B4948808880088027B0F0BD0448B1
:10348000FFF7DAFC27B0F0BD38080020026800081A
:103490007D68000894620008002C01403C08002070
:1034A000FE050020D3650008FE060020120700205C
:1034B000140700203B080020FB660008D5600008C8
:1034C0002C070020002401409C070020F55E000826
:1034D00039080020EB67000800000020C1650008E3
:1034E000E16800084408002050070020740700200D
:1034F000DB680008400800201D0700204864000821
:103500006563000807640008E6630008C2630008FA
:103510004063000825640008A063000820202836C6
:10352000292D53657420536C6176652049440A0D3A
:103530000000000020202837292D4D6F646966792E
:1035400020636F6E66696775726174696F6E732050
:103550006D616E75616C6C7920627920636F6D6D41
:10356000616E64206C696E652E0A0D00202028387B
:10357000292D54657374206D6F746F7220726F748F
:103580006174696F6E2E0A0D00000000202028393A
:10359000292D506F776572206F66662E0A0D3E00EA
:1035A000A8070020F0B58DB0BA4E3078401E0A282A
:1035B00017D8B9490D784000784480884000874486
:1035C0000A0012002D004200570010006D00830019
:1035D000D000110133010D2D00D131E10A2D00D1B0
:1035E0002EE10DB0F0BD303D092DFAD86D00C0467A
:1035F0007D44AD886D00AF44090095029F02A4028E
:10360000A902AB02B502BA02BF02D302B24801213D
:10361000017003203070B14800F0A2FB682D00DD7E
:1036200011E10A2D01D00D2DDBD1AC480078002826
:1036300000D143E2A8480121017004203070A8485D
:10364000002101603CE22C46623C182C00D9DCE1F0
:1036500001273846A040A349084200D1C9E177209C
:103660006840A1490978014300D102E1042101E148
:103670000A2D05D0662D00D178E10D2D00D07CE11A
:1036800096480078002800D10DE29848007800287C
:1036900010D091480121017007200FE00A2D04D0BD
:1036A000652D00D1CCE00D2D9BD18C4800780028F1
:1036B00000D1FBE18848012101700B20307088485F
:1036C000002101600DB0F0BD28460838182800D947
:1036D00069E1400078448088400087446601D10158
:1036E0001800D101D1011800D101D101D101D101BE
:1036F000D101D101D101D101D101D101D101D1013A
:10370000D101D101D101D101D101D101EB01784C1D
:10371000207801466539132900D9F2E24900C046F4
:103720007944898849008F441300CB03D903ED0302
:103730000704CB03CB030904CB03CB03CB03CB039D
:10374000CB031204CB03CB03CB03CB0328043E04EF
:103750000A2030706748012101705F48017000F055
:10376000A6FC0A3D232D00D93BE76D007D44AD88C2
:103770006D00AF4424002300230024002300230015
:103780002300230023002300230023002300230021
:103790002300230023002300230023002300230011
:1037A0002300230023002300230023002300230001
:1037B0002300230023005D012300680111E74E4828
:1037C000002444638463C4632146FFF735F94B4802
:1037D000047000F0C3FD40480121017002203070E8
:1037E0000DB0F0BD6E2D00D1AFE2792D3CD1414836
:1037F0000078002800D165E1414C8025204629460B
:10380000FCF7D8FE20462946FEF792FD002800D19D
:10381000DCE16420FEF74EFC3AA0FFF70DFB48A068
:10382000FFF70AFB00BFFDE728463038C0B2092881
:1038300010D8474801880A224A43A9183039D2E1F2
:10384000444801218CE2692D00D10BE1792D00D192
:1038500036E1C6E60C2D00DDB4E0082D00D1BDE157
:103860000A2D00D1B4E0BCE63BA0FFF7E5FA0DB0AD
:10387000F0BD48213A48007801F0A4F9204A182CFC
:1038800000D9E2E1971D374E04A164000C5B64008F
:10389000A744C046A4070020290800201D00DB0122
:1038A000DB01DB01DB01B801DB01DB01DB01DB015B
:1038B000BC01DB01DB01DB01DB01DB01C701DB015B
:1038C000DB01C001DB01DF01DB01DB01C4011746C5
:1038D0000A37254EA5E1C046950700201C070020A9
:1038E00034080020210429019C0700209D070020A6
:1038F0001207002038080020002C01407E0600201E
:10390000FE0500200D0A454550524F4D206572615D
:10391000736520636F6D706C6574652C706C656188
:10392000736520706F776572206379636C652074AE
:103930006F2074616B65206566666563740D0A00AF
:10394000636F72652068656C7465640D0A00000021
:1039500014070020290700200D0A07592F4E3F00A9
:1039600039080020CF670008D9660008FE480178B2
:103970004A424A4102700DB0F0BD28463038C0B20C
:10398000092800D92DE6A800F9494018C038007868
:10399000F84C2083F848FFF74FFA208B052141436C
:1039A000F648401888E27F2D6AD1F5480078022851
:1039B00000D10DE1012800D118E1002800D010E667
:1039C000FC48CCE17F2D00D108E10D2D00D008E6A8
:1039D000F94C2288FF2A00D984E04C20F2490A528F
:1039E00005ACF6492046FCF723FC2046FFF724FAF5
:1039F0005CE00B2C00D1E1E0112C06D1F0480078FE
:103A0000002800D1BEE10421BDE10D2D02D00A2D18
:103A100000D045E2EB480078002800D144E1EA48B4
:103A20000121017005203070E848002101603DE16E
:103A3000E7480268E12189008A4200DB0A466432D5
:103A4000026001AC08E0E2480268E2498A4200DC18
:103A50000A46643A026005ACDF492046FCF7E8FB01
:103A6000204629E25024D04D285B41424141295350
:103A7000DA48FFF7E1F9285B00283AD0D84839E066
:103A8000CB480078022800D140E1012800D14BE169
:103A9000002800D0A5E5C7480178002900D0A0E59E
:103AA00005700DB0F0BDC9480021016001F0C2F9F8
:103AB0000DB0F0BDBE480178491C51E101F0BAF9E2
:103AC000C8484CE1B8488021FEF732FC002800D1FC
:103AD00038E1C5A0FFF7B0F9BB4801210170022011
:103AE000307032E1C648FFF7A7F9002020800DB002
:103AF000F0BDC448FFF7A0F9012040030021FEF704
:103B0000FDFEB8480078002800D06AE5BE4C0121CF
:103B10002046FEF791FF7D2040016063A063E063D3
:103B20000DB0F0BDA8480121017003203070A548F8
:103B300000220270B54813E1A3480121017004205E
:103B40002BE0A14801210170052026E0B048B3E137
:103B5000B0480078002800D1A4E09B480121017002
:103B600007201AE09848012101700B2015E09648C3
:103B700001210170082010E08B480188202900D91C
:103B8000F4E04188202900D9F0E08088202800D97D
:103B9000ECE08D4801210170092030708948DEE099
:103BA0009C48007800287DD09B48FFF745F97E4867
:103BB000007D042101F006F80DB0F0BD824801211E
:103BC00001707F4801784A424A4168E193A0BAE017
:103BD00099480078022801D198480DE0764801887C
:103BE000974A4A43D10C01800DB0F0BD954800784A
:103BF000022800D06CE194480178002900D1F0E45B
:103C0000491EADE017460837904E0AE017460E37BA
:103C10008F4E06E017460C378E4E02E017461037DF
:103C20008D4E3878482100F0CDFF8C4C20783880BC
:103C30003046FFF701F92078052141435B484018E1
:103C4000FFF7FAF8584A772D03D08548FFF7F4F8C4
:103C5000554A108881490978012202E00124002C8C
:103C60001DD0CBB2202B01D0491C00E00021FE2347
:103C70000B400A2BF2D0CBB298421446EFD04A4CFC
:103C8000A41C002635460F2E05D06E1CA71C2488C8
:103C90009C423C46F6D10F2DE0D30024DFE76F486D
:103CA0000170FDE06F4807E101F0C4F8002601242F
:103CB0003D4D08E0002100291ED0701CF1B22029E2
:103CC000064600D3ECE07E2030400A2811D0F0B246
:103CD000298881422146EED0A91C00231A460F2BC9
:103CE00005D0531C8F1C098881423946F6D10F2A12
:103CF000E0D201210029E0D1F0B2042100F062FFFE
:103D0000DBE7002800D0DBE000BFD0E1F748017816
:103D10008A1E514251412A463A3AD2B252087B2A6F
:103D200000D243E1002242E1F34801788A1E514269
:103D300051412A463A3AD2B252087B2A00D23DE19A
:103D400000223CE1E748FFF777F8E4488021FEF7DE
:103D50009BFA02203070E24801210170DE48002108
:103D600001700DB0F0BDC0463A080020FD48A3E048
:103D7000E4590008FE050020D76700080000002075
:103D80003B0800204821F44C207800F01BFFD3486A
:103D90000188227803E00124002C00D17EE0130684
:103DA00062D0521E61E0C046FE05002000000020E7
:103DB0003B0800201207002014070020025D0008C5
:103DC0009C0700201C0700209507002034080020D5
:103DD0003C0800207CFCFFFFB76500082066000857
:103DE000D2680008440800200D0A636F6E66696798
:103DF00075726174696F6E2073617665640D0A0077
:103E0000B75C0008E1680008002C01402907002089
:103E10004D6600089D0700207B6600080D0A0745D7
:103E20004550524F4D206572617365206661696C23
:103E300065640D0A00000000170700201607002027
:103E4000CDCC000000070020FF060020C767000857
:103E5000EE660008E1660008F867000839080020EF
:103E60008B620008676600082022FE2313400A2B9D
:103E700091D0D3B299423C468ED09848841C0025FC
:103E80002E460F2D05D0751CA01C24889C4204468C
:103E9000F6D10F2E00D27EE700247DE7C2480270E3
:103EA000AE48FEF7C9FFC048007805214143A44849
:103EB0004018FEF7C1FFAA48FEF7BEFF0DB0F0BDE7
:103EC000A248FEF7B9FF2078FEF7DAFFA048ECE041
:103ED0008A480178CD224A43D10A41E78B48FEF750
:103EE000ABFF00267D4F8AA4BA5B05AD284621466C
:103EF000FCF79EF92846FEF79FFFB61C802EF3D1F3
:103F000085A0D2E08648FEF797FF0024854D874FB5
:103F100005AE304684492246FCF78AF93046FEF762
:103F20008BFF2846FEF788FF3846FEF785FF0E35E3
:103F3000641C402CECD1BAE07348B6E00025ECB22A
:103F4000204600F085FE6D1C3F2CF8D3AFE06A4898
:103F5000007802286AD16A480078754C00262654F9
:103F6000704D20462946FCF729FB002840D00E352D
:103F7000761C402EF5D1FF243BE05F4800780228F4
:103F80005FD15F4800786A4C00262654654D204674
:103F90002946FCF713FB002837D00E35761C402E3F
:103FA000F5D1FF2432E000F045FF80E001220A4312
:103FB000012A11D14F490A78604B06E001220A43D9
:103FC000012A0CD14E490A78594B9D5402230370A3
:103FD000501C08700DB0F0BD0121017029E40121D1
:103FE0000170464801780A224A43A9183039B7E6D9
:103FF000F4B2FF2C16D14F48FEF71EFF4C48FEF7D7
:104000001BFF4D48FEF718FF0EE0F4B2FF2C14D151
:104010004848FEF711FF4648FEF70EFF4648FEF7F8
:104020000BFF0CE035480470FF2C40D0334800787B
:104030003F2839D800F00CFE39E030480470FF2CDE
:1040400035D02A480078022822D12A4800783B4CF3
:1040500000262654C04D20462946FCF7AFFA00281A
:1040600005D06D1D761C212EF5D1FF2400E0F4B2A1
:10407000FF2C09D13348FEF7DFFE3048FEF7DCFEA7
:104080002D48FEF7D9FE01E019480480FF2C0ED020
:104090001A4800783F2807D84100154A12880F4B6C
:1040A0005A5200F0D5FD02E02748FEF7C5FE294828
:1040B000FEF7C2FE114800210170124801700C4841
:1040C0000180094801700B4801700D4801700748D4
:1040D0000170094844E6C04638080020FE0500206B
:1040E00095070020E95C00083B0800201707002026
:1040F000140700201607002000070020FE060020FD
:10410000FF0600201207002043690008626A0008C9
:1041100025692C200000000008087D3B00000000FD
:10412000105B0008AC000020156600088B620008D8
:104130000107002034660008A7690008180700205E
:10414000000000202B660008946900084166000802
:10415000B8690008C465000839080020EB6700084A
:10416000C1650008A466000870B50C4C20680C4DB1
:104170002968081A652810D30A4E3078002801D023
:10418000042100E048210848007800F01BFD286861
:104190002060307841424141317070BD9807002065
:1041A000A00700201107002039080020F0B581B0D9
:1041B0005B4800780125002843D05A48FEF73CFEB2
:1041C000594EB08A0027F943B1827082C0B20421EF
:1041D00000F0F8FC04E0781CF9B22029074621D24F
:1041E0007E2038400A2811D0F9B23088884228460B
:1041F0000DD00020C243B31C0E2A0FD09C1C521CB1
:104200001B888B422346F7D10F2A00D201200028B9
:10421000E1D1F8B2482100F0D5FCDCE70F220F2AEB
:10422000F4D3F4E700F0A6F941480024047041A05B
:10423000FEF702FE3D487082B0823948047001B03A
:10424000F0BD0026384C02E0761C212E65D0FE2100
:104250003046009108400A2801D1012112E0B0B295
:104260002188814229460DD0A11C00231A460F2B1C
:1042700005D0531C8F1C098881423946F6D10F2A7C
:10428000EBD30021B0B2628A121A50425041002989
:10429000294600D001460129D6D12B48805D00284F
:1042A000D2D1F0B200F0C4F90028CDD0668227A0A8
:1042B000FEF7C2FD0520704327490818FEF7BCFD34
:1042C000002702E07F1C212FBED03846009908400D
:1042D0000A2801D1012118E0B8B22188814229467B
:1042E00013D021462C46891C00231A460F2B05D0DB
:1042F000531C8D1C098881422946F6D10F2A01D30F
:10430000002100E001212546074C0029DAD1F8B24E
:1043100000F08EF90C49C855D4E701B0F0BDC04695
:1043200029070020C8690008FE050020FFFF0000E3
:104330009D07002007576F726B61726F756E642066
:104340006661696C656400002C0700200D0A4275E7
:1043500074746F6E3A00000000000020F0B581B068
:1043600082480078401E824C052829D8784400797C
:1043700040008744023D6083A6C9042600252046EC
:1043800031462A46FEF73EFB204631462A46FEF7D6
:1043900041FB6026204629463246FEF729FC0122D1
:1043A00020462946FEF72EFB204629462A46FEF7E0
:1043B00031FB0825204629463246FEF719FCC5E0A8
:1043C0000025204629462A46FEF71CFB04262046E7
:1043D00029463246FEF71EFB204631462A46FEF7A6
:1043E00011FB204631463246FEF714FB0825ADE0AE
:1043F0000025204629462A46FEF704FB204629468A
:104400002A46FEF707FB0427602620463946324637
:10441000FEF7EEFB012220463946FEF7F3FA20466E
:1044200039462A46FEF7F6FA08252046294632463E
:10443000FEF7DEFB8AE008260025204631462A46A4
:10444000FEF7E0FA204631462A46FEF7E3FA042753
:104450006026204639463246FEF7CAFB0122204636
:104460003946FEF7CFFA204639462A46FEF7D2FAF9
:10447000204629463246FEF7BBFB67E004260025AE
:10448000204631462A46FEF7BDFA204631462A46E6
:10449000FEF7C0FA08276026204639463246FEF766
:1044A000A7FB012220463946FEF7ACFA20463946E2
:1044B0002A46FEF7AFFA204629463246FEF798FB19
:1044C00044E00025204629462A46FEF79BFA20466E
:1044D00029462A46FEF79EFA0827602620463946D6
:1044E0003246FEF785FB012220463946FEF78AFA5E
:1044F000204639462A46FEF78DFA042520462946ED
:104500003246FEF775FB21E008260025204631469D
:104510002A46FEF777FA204631462A46FEF77AFA0F
:104520006026204629463246FEF762FB01222046DD
:104530002946FEF767FA204629462A46FEF76AFA18
:104540000425204629463246FEF752FB002220462B
:104550002946FEF757FA042220462946FEF75AFA62
:1045600020212046FEF7A8FA01B0F0BD7E0600200B
:10457000002C0140F0B581B000F0EAFE6420FDF7A8
:1045800099FD0027244E254C07E0012000281CD06F
:10459000781CF9B22029074626D27E2038400A2806
:1045A000F3D0F8B221888142EFD0A11C00231A4633
:1045B0000F2B05D0531C8D1C098881422946F6D14A
:1045C0000F2AE2D300200028E2D13068FDB2A58294
:1045D00080212046FDF7ACFE0021284600F0F2FACB
:1045E000FA20FDF767FDD3E70D48A0828021204621
:1045F000FDF79EFE306880B2FCF7DFFB02460B46FB
:1046000008480949FCF770F9FCF730F907490860D8
:10461000002001B0F0BDC04654240140FE0500203A
:10462000FFFF0000333333333333B34040080020FF
:1046300010B5062141430C4A505C431E032B09D898
:104640000920C0067B441B795B009F4408010507D5
:10465000084804E0002010BD054800E00348511858
:104660004988FDF7DDFF10BD3E5A0008000C0048E8
:10467000000800480004004880B582B001AA012368
:104680009370517010701046FDF7E8FF02B080BDC6
:1046900003490A6802430A600A6882430A60704755
:1046A0001010024003490A6802430A600A68824304
:1046B0000A6070470C100240F0B593B0D64F3888AE
:1046C0000B90002201200C900A92114608E00A9DEE
:1046D000681C0DAC0A90E8B22254521C0A2A29D058
:1046E0009400CE48055DFE232B400A2B01D1012604
:1046F00014E00B98A8420C9E10D0BE1C00231F464D
:104700000F2B05D07B1CB01C3688AE420646F6D176
:104710000F2F01D3002600E00126BF4F002EDCD171
:10472000BE48001980780028D1D0481C10AC0D4636
:104730000146D0E70A98C0B2401CC2B20192824240
:10474000B64E01D013B0F0BD4A1C0DA864300690DF
:1047500010A8643008907D20C000099000240592C4
:1047600004E0641CE0B201998842EBD21006F8D054
:10477000002706E0059A079CD0B27F1CF9B281425F
:10478000EFD20794E0B20DA9085C85007419E078B7
:10479000F9B210AA515C8B00F218D1788142E9D1AC
:1047A000039304950B920A94029735460027E85D1F
:1047B0000024214600F006FAE85D072100F024FA03
:1047C0003F1D282FF3D1039FE85D0B99497800F036
:1047D0001BFA049EA85D0A99497800F015FAE85D75
:1047E000182100F0EFF9A85D042100F0EBF927464D
:1047F0008B48047001263046FDF75CFC89A0C55D3E
:104800002846FEF73DFB0A20FDF754FC844800785B
:10481000A84249D1781C062F0746E9D90B980078A1
:104820007D4FB8830A980078F88380213846FDF7D9
:104830007FFD0125E2480570002008E00021764F49
:1048400000291ED0701CF1B2202900D39FE006463B
:104850007E2420400A282946F2D0F0B239888142CD
:104860000C99EDD0B91C00231A460F2B05D0531C10
:104870008F1C098881423946F6D10F2ADED20121E8
:10488000DDE70898007880006449095CF0B288424E
:10489000D8D0069909788900604A515C8842D1D005
:1048A000482100F08FF9CDE700200A9C0B9A08E020
:1048B00000210A9C0B9A00291FD0781CF9B22029EC
:1048C00027D207467E2528400A283146F3D0F8B281
:1048D0005149098881420C99EDD04F49891C002328
:1048E0001A460F2B05D0531C8C1C09888142214687
:1048F000F6D10F2ADCD20121DBE71178F8B2884229
:10490000DBD021788842D8D0482100F05BF90B9A9F
:10491000D3E70A20FDF7CEFB0B9A00203E4F03E0C1
:10492000701CF1B220292AD2064628400A2801D15B
:10493000012116E0F0B2398881420C9911D0B91CDE
:1049400000231A460F2B05D0531C8C1C098881426A
:104950002146F6D10F2A01D3002100E001210A9C53
:104960000B9A0029DCD11178F0B28842D8D0217896
:104970008842D5D0042100F025F90B9AD0E76420B5
:10498000FDF798FB254E059A079C029FF4E60998CF
:10499000FDF790FB002501E0002D0ED12E20FEF743
:1049A0006FFA0A20FDF786FB1D4800782E28F3D009
:1049B0000998FDF77FFB0125EEE7002507E00021C0
:1049C00000291DD0681CE9B2202905461DD22846C1
:1049D00020400A2811D0E8B2398881420C99EFD0E2
:1049E000B91C00231A460F2B05D0531C8E1C0988B6
:1049F00081423146F6D10F2AE1D201210029E1D1CD
:104A0000E8B2042100F0DEF8DCE7FEF7ADF964243B
:104A10002746024E059AAFE6FE0500207E6A000892
:104A2000280800201112131414131211F0B581B0CC
:104A30000546AA4F3878FFF7FBFD0446B878FFF724
:104A4000F7FD06463879FFF7F3FD7100091980007C
:104A50000818012D01D00721081AC0B20149085CCD
:104A600001B0F0BD0C5A0008012460042146FDF796
:104A70001DFEA0042146FDF719FEE0042146FDF7C6
:104A800015FE20052146FDF711FEFDF7EDFAFDF7B5
:104A900097FA4B200002FEF721F90A20002529464B
:104AA0002A46FFF7E9FD0B2021462A46FFF7E4FDE1
:104AB0003B4E3C493C4F30463A462346FDF7AAFB65
:104AC00028363A4930463A462346FDF7A3FB00F024
:104AD00097F900281ED0F048808A202805D8C0B257
:104AE000482100F06FF83248047000F031FC642077
:104AF000FDF7E0FA2F48006880B2FCF75EF9024645
:104B00000B462D482D49FBF7EFFEFBF7AFFEAC49F6
:104B1000086009E000F0CAF97D20C000FDF7CAFA7C
:104B2000FFF728FD2249087060032946FDF7E6FEDD
:104B3000F348818B202905D8C08B202802D8FEF7A6
:104B400013F92546D74C2570D54D2878002803D079
:104B500000202870FEF72CFA20780928F5D8C046E6
:104B60007844007940008744080B070E111407179A
:104B7000070400F0B1FBE8E7E7E7FFF79DFDE4E796
:104B800000F014FCE1E700F0BDF9DEE7FFF7ECFA16
:104B9000DBE700F0B1F8D8E7FFF708FBD5E7C04640
:104BA000300002400438014029080020044400403D
:104BB0009D07002054240140333333333333B34053
:104BC000A4070020B0B5062343431D4CE05C421E01
:104BD000032A16D80920C0067A4412795200974455
:104BE00006010305194802E0174800E01548054A88
:104BF000D17003219170E118498811801146FDF7A9
:104C0000B7FCB0BDF0060020B0B50A46062141430E
:104C10000B4B585C441E032C11D80920C006C0461B
:104C20007C4424796400A74406010305074802E098
:104C3000054800E0034859180979FDF7E1FCB0BDCB
:104C40003E5A0008000C00480008004800040048D4
:104C5000F0B589B004461F48FEF7EEF80E20604319
:104C60001D490D182846FEF7E7F82846FBF71AFC01
:104C70000D280CD000262020FEF702F92846FBF76D
:104C800011FC0D21081A761CF1B28842F3D8660097
:104C9000124FBB5B01AD12A128462246FBF7C8FAB2
:104CA0002846FEF7C9F8202C11D2BC192820FEF79F
:104CB000E7F82088212801D30DA003E00521414316
:104CC0000A484018FEF7B8F82920FEF7D9F809B0CD
:104CD000F0BDC0468B620008AC000020FE0500203D
:104CE00028253269293A2025356920000000002056
:104CF0006E6F742073657400F0B589B000242E4E79
:104D00001FE001AD284634A12246FBF791FA284660
:104D1000FEF792F830780521414331484018FEF7FC
:104D20008BF83846FCF778F902460B4628462DA149
:104D3000FBF77EFA2846FEF77FF8361D641C0A2C26
:104D400031D01E48005D0028F7D03078FEF7E8F833
:104D5000FCF73BF805460F4619480068FCF75CF97C
:104D600002460B4628463946FCF732F800252A460B
:104D7000144BFCF72DF82A46134BFCF729F8FBF7E8
:104D800075FD0746114800780028BAD13846104909
:104D900000F0F9FC0028D0D138460E4900F0E8FCBC
:104DA0000028AED0C9E711A0FEF746F87D2000012B
:104DB000FDF780F909B0F0BDE4590008F4060020C1
:104DC0004008002000003F400000303F3A0800202B
:104DD0000000A0410000344225692D3E0000000083
:104DE000000000203A2566560A0D00003D3D3D3D7D
:104DF0003D3D3D3D3D3D3D3D3D3D3D3D0A0D0000C0
:104E000010B5A0B06C4680212046FDF73DFA402049
:104E1000205A0749884207D1394869468022FBF762
:104E200063FB012020B010BD002020B010BDC046A3
:104E3000ABDC0000B0B5324B1888184A11888142AB
:104E40001FD10020C143921C9B1C3E2912D09C1CE8
:104E5000951C491C1B8812889A4223462A46F4D086
:104E60000F4A012313700F4A0A2313700E4A107061
:104E70003F290FD30A48012101700A48022101701D
:104E8000B0BD07480121017006480A21017006489B
:104E900000210170B0BDC046FE050020A80700201B
:104EA00095070020A40700201C07002070B50025EE
:104EB000EF4C07E0012000281CD0681CE9B2202933
:104EC00005461CD27E2028400A28F3D0E8B221886B
:104ED0008142EFD0A11C00231A460F2B05D0531C92
:104EE0008E1C098881423146F6D10F2AE2D3002078
:104EF0000028E2D1E8B24821FFF764FEDDE770BD8B
:104F0000FE050020F0B585B00127049704E0F148C4
:104F10000078032800D0A4E1D54B9988FF39484296
:104F200048415A88FF3A514251411A88FF2A3A466D
:104F300000D00A46002A394600D10146012900D096
:104F40008FE10120009001461E200191401A02903D
:104F5000009905E00399481C0629014600D3BAE0F0
:104F6000C44803910170FFF7F9F90298FDF7A2F820
:104F7000002505E0002100290AD06D1C212DE9D073
:104F8000FE26284630400A2824D101210029F4D1E8
:104F9000B8480078401E0528EFD8C046784400790C
:104FA00040008744022C365B708EEFB23846FFF724
:104FB0003FFB002400282046AF4A02D1505D411E2D
:104FC000884150553846FFF733FB00282046AB4A4E
:104FD00033D135E0A8B2A649098881423946CAD002
:104FE000A349891C00231A460F2B05D0531C8C1C87
:104FF000098881422146F6D10F2AC6D3BAE7EFB21B
:105000003846FFF715FB0024002820469A4A0CD1A9
:1050100008E0EFB23846FFF70BFB002400282046DB
:10502000954A02D0505D411E884150553846FFF7E1
:10503000FFFA00282046914A02D1505D411E884166
:1050400050553846FFF7F4FA002803D08C48445DE9
:10505000601E84418A484455049F8EE7EFB238466B
:10506000FFF7E6FA002400282046834A02D0505D6C
:10507000411E884150553846FFF7DAFA002820468D
:105080007E4A17D113E0EFB23846FFF7D1FA002479
:1050900000282046784A02D0505D411E8841505574
:1050A0003846FFF7C5FA00282046744A02D0505D02
:1050B000411E884150553846FFF7BAFA0028C9D139
:1050C000C4E7EFB23846FFF7B3FA002400282046C1
:1050D000694AE4D1E0E700246A4F6748674A70A54F
:1050E00003E07F1D641C212C28D0015D002909D01C
:1050F0005F48048064A0FDF79FFE3846FDF79CFEE4
:105100005E4A5D48115D002909D05948448061A07C
:10511000FDF792FE3846FDF78FFE584A564858492B
:10512000095D0029DDD0524884802846FDF784FEC1
:105130003846FDF781FE514A4F48D2E72125012725
:10514000294614463A46FBF710FA204629463A46C5
:10515000FBF70BFA4A4829463A46FBF706FA444859
:1051600004880021039402E0491C212924D00A4626
:1051700032400A2A3B4615D08AB29442049B11D091
:105180003B48831C00252C460F2D05D0651C981C20
:105190001B8893420346F6D10F2C01D3002300E075
:1051A0000123039C002BDFD00020344A5054324AA4
:1051B0005054334A5054D7E72D4B9988FF39484211
:1051C00048415A88FF3A514251411A88FF2A049FA8
:1051D0003A4600D00A46002A39463A4E00D10146E6
:1051E000002913D039A0FDF727FEFF202049488071
:1051F000888008809B4800780328019900D086E6C3
:10520000481C1D29014600D29EE680E627A0FDF736
:1052100013FE174A90885188128800231C4602E02A
:10522000DB1C2A2B12D0F55CAA4202D1F618B67804
:105230003419A94203D1234EF618B6783419214EF9
:10524000A842EDD1F518AD782C19E9E7E0B20028B5
:1052500000D15CE6032800D159E61B48FDF7ECFDC0
:1052600055E63948002101604160816005B0F0BD1C
:10527000FE0500207E0600202C070020500700209D
:1052800074070020000000200D0A48414C4C413AB0
:10529000000000000D0A48414C4C423A000000005A
:1052A0000D0A48414C4C433A000000000D0A446589
:1052B00074656374696F6E20737563657373667567
:1052C0006C000000145A0008E86800080D0A7265B6
:1052D00074727900A407002070B5164D2878FFF786
:1052E000A5FB154C2178884207D02878FFF79EFB54
:1052F000207012490870FFF731F84A201049085A07
:1053000010490C6844437D20C100204600F028F974
:10531000FBF753FD0126F2079143FBF709FD0A490C
:1053200008604860094A944200DC00262E708860BC
:1053300070BDC046FC050020FD0500207E06002053
:10534000FE0500203C080020342C0140E70300004B
:1053500070B586B0144C2046FCF7D4FD01256802D8
:105360002946FDF7BFF900260596A80202902020E5
:105370000190A8040490009669462046FCF7CEFDF3
:1053800020462946FCF7B6FD0F212046324633461B
:10539000FCF7E0FD2846FCF705FE20462946FCF711
:1053A000F7FD06B070BDC04600240140F0B581B0E5
:1053B0002B480078002823D001242046FCF77AFEF1
:1053C000284800260670284F3D6828A0FDF734FDC8
:1053D000C8353868A84209D226480178BF220A4059
:1053E0001B2A18D000BF3968A942F6D322A0FDF7C6
:1053F00023FD2BA0FDF720FD32A0FDF71DFDFEE7EC
:105400003B4C2078002814D03AA0FDF715FD64200D
:10541000FCF750FE1BE031A0FDF70EFD3248047092
:10542000022010490870314806600D48067001B02E
:10543000F0BD3148FDF700FD1D2001012F48FDF7AB
:1054400039FD2F48FDF7F8FC2EA0FDF7F5FC20787C
:10545000401CC1B2322900D90020207001B0F0BD3B
:1054600029070020A4070020A00700201B5B356E41
:1054700000000000280800200D0A796F7572207363
:10548000657269616C207465726D696E616C20690A
:1054900073206E6F7420737570706F727465640022
:1054A0000D0A706C6561736520676F2072656164B9
:1054B00020746865206675636B696E67206D616E28
:1054C00075616C000D0A68747470733A2F2F742E16
:1054D0006C792F47466F3954000000000D0A1B5BA2
:1054E00033366D7061737300950700203408002017
:1054F000130700202E0000008E6200082C040020FC
:105500009C640008707265737320656E7465722008
:10551000746F20636F6E74696E75650043088B420B
:105520001AD3002203098B4279D3030A8B425ED33C
:10553000030B8B4242D3030C8B4227D30902FF2279
:1055400012BA030C8B4202D31212090203D0030BCE
:105550008B4233D31AE0D3E0411A8041401C70479C
:1055600003460B4371D443088B42F5D30022030951
:105570008B4254D3030A8B4239D3030B8B421DD386
:10558000030C8B4202D394466EE0090AC30B8B4294
:1055900001D3CB03C01A5241830B8B4201D38B033F
:1055A000C01A5241430B8B4201D34B03C01A5241E4
:1055B000030B8B4201D30B03C01A5241C30A8B4227
:1055C00001D3CB02C01A5241830A8B4201D38B0212
:1055D000C01A5241430A8B4201D34B02C01A5241B6
:1055E000030A8B4201D30B02C01A5241CDD2C30928
:1055F0008B4201D3CB01C01A524183098B4201D3A4
:105600008B01C01A524143098B4201D34B01C01A8E
:10561000524103098B4201D30B01C01A5241C30806
:105620008B4201D3CB00C01A524183088B4201D375
:105630008B00C01A524143088B4201D34B00C01A61
:105640005241411A524110007047CA0F00D04942DE
:10565000031000D34042534000229C4603098B4272
:105660002DD3030A8B4212D38901FC2212BA030AFA
:105670008B420CD3890192118B4208D3890192117C
:105680008B4204D3890137D0921100E08909C30904
:105690008B4201D3CB01C01A524183098B4201D303
:1056A0008B01C01A524143098B4201D34B01C01AEE
:1056B000524103098B4201D30B01C01A5241C30866
:1056C0008B4201D3CB00C01A524183088B4201D3D5
:1056D0008B00C01A5241D9D243088B4201D34B00F0
:1056E000C01A5241411A00D2014652411046634647
:1056F0005B1000D34042704763465B1000D34042CA
:1057000001B50021004201D0C9430846C046C04649
:1057100002BDF8B5040C8BB2264682B25E43104639
:1057200058430D0C370C3604002180191646794178
:105730006E43370C36048019264679416E43891929
:10574000F8BD00004900CA020243100000D0042046
:105750004A0D01D001221043044A490D914201D162
:1057600002210843012800D105207047FF070000EF
:1057700010B500F033F8EFF30080800001D5012070
:1057800010BD002010BD10B500F052F8EFF30080FE
:105790004000800F012801D0012010BD002010BD65
:1057A00030380A2801D201207047002070470000DD
:1057B00010B500290AD00878002807D00548784499
:1057C000FAF7FCFE002801D0002010BD0248784402
:1057D00010BD00000A130000021300000123DB05C6
:1057E00002000A430DD4DA4203D49A4207D4884215
:1057F0007047D84214D4D94212D4884270478042AC
:105800007047DA4203D59A42F9D5814270475B006E
:105810004200DA4204D24A00DA4201D281427047A1
:1058200010B5024AFCF768FA10BD00BF0900130466
:105830000123DB0502000A430DD4DA4203D49A4265
:1058400007D488427047D84214D4D94212D488422F
:10585000704780427047DA4203D59A42F9D58142B7
:1058600070475B004200DA4204D24A00DA4201D2B9
:105870008142704710B5024AFCF73EFA10BD00BFE6
:105880000900160403B402487844844603BC604708
:105890002DBAFFFF30313233343536373839414293
:1058A0004344454640305800303132333435363782
:1058B000383961626364656640307800040000082E
:1058C0000000000000000002000100001080807F46
:1058D0007E7D7C7B7A797877767675747372717158
:1058E000706F6E6E6D6C6C6B6A6A6968686766660D
:1058F000656464636362616160605F5F5E5E5D5D9D
:105900005C5C5B5B5A5A595958585757565655550F
:10591000555454535352525251515050504F4F4F6F
:105920004E4E4D4D4D4C4C4C4B4B4B4A4A4A4949BF
:105930004948484847474747464646454545444401
:1059400044444343434342424242414141000000F8
:1059500002400000000000A0000000000540000020
:10596000000000C8000000000C4000000000409C47
:1059700000000000194000000020BCBE0000000034
:1059800034400000BFC91B8E00000004B540000079
:10599000504BCFD06607E2CF010000006C41000001
:1059A0003E8251AADFEEA73401000000D942000078
:1059B000DCB5A0E23A301F97FFFFFFFFB4450000BF
:1059C000FD25A0C8E9A3C14FFFFFFFFFFF3F000077
:1059D0000000008000000000FF3F00000000008089
:1059E00000000000000000000100010002000200B1
:1059F0000300030004000400050005000600060083
:105A0000070007000D0008000E0009000003050450
:105A10000102060000040101020102020106010068
:105A20000701000D01001007011107011207011302
:105A300004011702011A06011B06011C06010100E0
:105A4000010000000100020001000100040002004A
:105A50000100080003000100100004000100200004
:105A60000500010040000600010080000700010061
:105A700000080B00010000100C00010000200D00C8
:105A8000010000400E00010000800F000200010034
:105A900000000200020001000200040002000200F7
:105AA00008000300020010000400020020000500AE
:105AB0000200400006000200800007000200000112
:105AC0000800020000020900020000040A000200AF
:105AD00000080B00020000100C00030000200D0065
