:020000040800F2
:10000000100C00209D010008C9010008CB01000868
:1000100000000000000000000000000000000000E0
:10002000000000000000000000000000CD010008FA
:100030000000000000000000CF010008E1220008DD
:10004000D3010008D3010008D3010008D301000840
:10005000D3010008D3010008D3010008D301000830
:10006000D3010008D3010008A9140008C314000834
:10007000790E000875240008D3010008D301000898
:10008000D30100080000000000000000D3010008B8
:1000900000000000D3010008D3010008D3010008CC
:1000A00000000000D3010008D3010008D3010008BC
:1000B000D301000800000000D30100080000000088
:1000C00000F002F800F03EF80CA030C80838241800
:1000D0002D18671EA246AB4654465D46AC4201D180
:1000E00000F030F87E460F3EB6460FCC0126334274
:1000F00000D0FB1A3343A246AB46184748440000E1
:1001000068440000103A02D378C878C1FAD8520780
:1001100001D330C830C101D504680C6070470000BD
:100120000023002400250026103A01D378C1FBD813
:10013000520700D330C100D50B6070471FB51FBDFB
:1001400010B510BD00F016FE1146FFF7F7FF03F0E3
:10015000CDF800F02EFE03B4FFF7F2FF03BC00F071
:1001600083FE000070B505460C46164602E00FCC33
:100170000FC5103E102EFAD2082E02D303CC03C5B1
:10018000083E042E07D301CC01C5361F03E02178B9
:100190002970641C6D1C761EF9D270BD104880F366
:1001A000088810481049016010480168090E104A7B
:1001B000914205D10F480C4901600F480F49016079
:1001C0000F4880470F480047FEE7FEE7FEE7FEE7DF
:1001D000FEE7FEE70C480D490D4A0E4B7047000044
:1001E000100C00206020024001000000040000000C
:1001F0001F00000018100240000001400000000035
:1002000001230008C100000810060020100C002087
:100210001008002010080020F8B5042A2CD383070A
:1002200012D00B78491C0370401C521E83070BD060
:100230000B78491C0370401C521E830704D00B78B6
:10024000491C0370401C521E8B079B0F05D0C91A16
:10025000DF002023DE1B08C90AE0FFF783FFF8BD9B
:100260001D4608C9FD401C46B4402C4310C0121F57
:10027000042AF5D2F308C91A521EF0D40B78491C8F
:100280000370401C521EEAD40B78491C0370401CBA
:10029000012AE4D409780170F8BD01E004C0091F07
:1002A0000429FBD28B0701D50280801CC90700D02E
:1002B0000270704700290BD0C30702D00270401CA7
:1002C000491E022904D3830702D50280801C891E9F
:1002D000E3E70022EEE70022DFE770477047704750
:1002E0000246C80FC00781434B0030B54B405B004E
:1002F0009B0D20D01923DB06C91801231B05994249
:1003000020DB0324A40704251346AB400BD3002BAA
:1003100004D1EB0613409B00E34204D4012464079C
:10032000002312195941FF231B0599420BD2C90022
:100330000143500F09E0CB0204D5014308030243F7
:1003400005D0054830BDFF21C905084330BD08462A
:1003500007210905884330BD0000C07FF0B5F94D85
:100360000C091E092C402E402F468BB0A7437DD090
:10037000B543FCD0002E7AD0002CFCD00D465D4059
:10038000ED0F2543AC1BFF25AD0464190894C5028D
:10039000440DC9022143500DDC0204430120C00773
:1003A00001430443D2020191200C110C00958C46AC
:1003B000010423468B430A9161460904E24D8A43B6
:1003C0000991010A7D4449198039097805464D4350
:1003D00001266D18F605751B6943C90C640B891C51
:1003E0004C436418B5012C1B250C2E04B4434C431C
:1003F0004D43210C691889090591009DE90701D039
:100400000121C90704912C4601996708CD072F43A4
:100410004C08059DE10B4D432D0C2946664675435E
:1004200002950D4645432E46029D7D1BB441009525
:100430000D465D4301942C0C2F040D465543AE46EA
:100440002D0C3D43029503947546049C2D04641BBA
:10045000049406D2029C039D641C002675410395FA
:10046000029401AC70CC009F7D1B01E03EE162E193
:10047000B44109040095079101940599A4086143CA
:10048000090C0C464443650BE7040C46664674436E
:10049000A646640B3C43039502947446049DE40411
:1004A0002C1B049406D2029C039D641C00267541FB
:1004B0000395029401AC70CC009F7D1BB441019464
:1004C0000C465C430095650FE7000C465443A64676
:1004D000640F3C43039502947446049DE4002C1B76
:1004E000049406D2029C039D641C0026754103956A
:1004F000029401AC70CC009F7D1BB441AE09AF06E5
:10050000049DC900AD092F43049DA406AD060495C2
:10051000079D344369180791059DE10B4D432D0C50
:1005200029466646754302950D4645432E46029D73
:100530007D1BB44100950D465D4301942C0C2F04A6
:100540000D465543AE462D0C3D430295039475462A
:10055000049C2D04641B049406D2029C039D641C1D
:10056000002675410395029401AC70CC009F7D1B61
:10057000B44101948C050694079C890A6118009582
:100580000791019C0599A4086143090C0D46454358
:10059000680BEF040D46644665436C0B3C43049FB7
:1005A000ED047D1BAC4602D20025641C6841009E10
:1005B000019D371B85410846584301950C46460F5F
:1005C000C5005443600F28436546E4002C1B02D24B
:1005D0000025401C6E41019D3F1AB5412846BD09CA
:1005E000800628438446A009BF064E020699A40649
:1005F00076180743079D002068410A990790194320
:100600000020099B00906046FF1913434041E20F10
:1006100064003A43A4460446D71A8C41A04203D949
:100620000120009020463A46C70F94184041624688
:10063000D20F2243644664000494009CBE466400CA
:10064000D71AA446044602978C417746002F01D161
:10065000A04204D96046401C8446029A2046C40F3A
:10066000A64694184041049A0546D20F2243644698
:100670006400D31A8D417146002901D1A84202D9E4
:1006800028461A46641C10430122002800D0164355
:1006900061020020079B891904465C410223002C5B
:1006A00002DB491813466441089DCE0A2D145D19DA
:1006B0004B056705E10A2C050D1908993E43C9074A
:1006C0006940002B08D0934006D30022761C51418C
:1006D000002B01D1760876001C4A002D43DB154221
:1006E00041D0AA433FD030460BB0F0BD06180D46AE
:1006F0004D41174C7642AC411AD395181C465C41CB
:10070000134A6D42A24113D3012252054C00D44238
:100710000AD15C00D4420BD04B4002D59202114367
:10072000E2E749004908DFE75940C90FC90718E067
:1007300000200849D8E7054801420DD10342F7D00F
:10074000F2E700000000FF07643D00000000F07FBA
:100750000000E0FF0000F87F114859400143C0123B
:1007600041400020C0E70123089A9B069A4205DC1D
:10077000032252078918C90FC907B5E70522520796
:100780008918074A1143D2125140ADE770B515469A
:100790001C4602460B4628462146FFF7DFFD70BD8A
:1007A000FFFFFF7F30B50346CA02400D1043164DD0
:1007B000164C0A1502D02043002A06DBAA1A002A8A
:1007C00012DDD040FF2A0BDC30BD5205520D01D1A5
:1007D00040004008AA1A07D4D0404042FF2A01DD59
:1007E000002030BD0028FCDD4A00002B01D0012094
:1007F00000E00020101801225205D042F0D8C8179E
:10080000C043604030BD00001E04000000000080B6
:100810001F22030C02D10F22000402D0030E03D0CA
:1008200004E00020014670470002083A030F01D19E
:100830000001121F830F01D18000921E002801DBEE
:100840004000521E120551184205C01241181046B0
:100850007047C10FC90700D04042012292071143DF
:10086000D6E701218907D3E7F0B58B4C0F09254660
:1008700089B0BD437BD01D092646AE43FAD00E4653
:100880005E402740F60F3E43254071D024012142AF
:10089000FBD0FF24AD19A4042D1B039501252D05C4
:1008A000DB02DB0AC9022B43C90A29431E010901E5
:1008B000040F130F050121431701880B8203914395
:1008C0002D098C46A90B1E438A039543B30B9A034B
:1008D00096433F09BA0B9403A74302962E467E43E4
:1008E0000497B6464E19D7190C46019654430597FE
:1008F0007E43371B7646BF1B3601B646BE0B361904
:1009000000967646BC043719009C01D3641C009401
:100910006400002F01D001263443029E049F7543DA
:1009200066467E430496760034196E0034190094AE
:10093000029C019E1C196643751BAE4606946546D3
:100940004519059C05956C43594375460891691AEC
:100950000191049E01465143A41B0491611A009C1D
:100960000791E10605D061090122114302E072E01E
:100970006EE06109089D00272C0A2D066918049D68
:100980007C412A0A2D066918019D6241AC0DAD0219
:100990006D185441079A910D920255196141029ABE
:1009A000644658435443069B059A5A43121A131B34
:1009B0009A0E9B015B187A41010B0005C318514147
:1009C000220A200644195A419A4200D2491C0120A9
:1009D0004002814203D315230226F64302E014238A
:1009E0000326F6432020C51AA9401746AF40DA4037
:1009F0000A4320460399D840091473181905511861
:100A0000039A3843D2075140AC4009D001229440A8
:100A100006D30022401C5141002C01D14008400067
:100A20001E4A934212D3012203989206904207DB9A
:100A30000520400709181A480143C012414004E04C
:100A4000032040070818C10FC907002009B0F0BDF6
:100A50000020F107FAE705180C464C4111486D4299
:100A6000A04115D394181A465A410E486442904149
:100A70000ED301204A004005824209D35A00824227
:100A800006D35940C90F084AC90700201143DDE7C2
:100A900000200649DAE700000000FF07FE0700001B
:100AA000FFFFFF7F0000E0FF0000F07F0000F87F05
:100AB0000121C9050123411842001B06D3185B0E12
:100AC0000AD0C1100722D206891840075242D142EB
:100AD00001D5520089187047090208D50146002A3D
:100AE00003D0C10FC907002070471046704742026B
:100AF00002D0002002497047072109050143F4E7AD
:100B00000000F87FF0B5FF252D04C609C209FF27B4
:100B100004462E400137CB093E4348402A402B4033
:100B20000746002A6BD0002B69D0AA4267D0AB429F
:100B300065D0002800DA32460125ED0529432C4313
:100B400009022002090AD21A4B0C7F24E31A434CF3
:100B5000000A7C44E35C7D242404121914145B0015
:100B6000A218884201D3521C00E0400049420C46C2
:100B70005C4324115C43DB016415E318040A5C4305
:100B8000C502200D0C4644436419250A5D43230326
:100B9000EC0C0D46654300030019EB184C42A342D0
:100BA00001D35B18401CD4052018002B07D05B0034
:100BB000C91804D3401C002901D1400840003F213E
:100BC00089048A4209D3002A08DC1106090F04D0DF
:100BD000032149074018C00FC007F0BD01224100A2
:100BE000120689187F2252069142F6D20521490742
:100BF000C84201D59010F0BDFF20C005F0BD002F08
:100C000000DA32461648AA4207D2AB4205D2190290
:100C1000090E17D0F80FC007F0BDFF2563002D06A1
:100C2000AB42F9D84900A942F6D8AB4201D1A9425A
:100C3000F2D0A94201D1002101E061004908D005AC
:100C40000843F0BD1102090EFBD0FF200243D0057E
:100C5000F0BD0A460146104654E700005636000033
:100C60000000C07F10B501469E240002CA15A307EC
:100C7000002A02D01843002A04DBA21A002A0CDD45
:100C8000D04010BD1206120E01D140004008A21A39
:100C900003D4D04040420028F3DDFF224800120672
:100CA000904201D9002010BDC817C043584010BD64
:100CB0001F22030C02D10F2200041CD0030E01D10D
:100CC0000002083A030F01D10001121F830F01D166
:100CD0008000921E002801DB4000521ED2055118F0
:100CE000021251181922904004D3491C002801D146
:100CF0004908490008467047C10FC90700D0404263
:100D0000012292071143D3E701218907D0E70000B0
:100D100010B5FF231B0644009C421DD84C009C428A
:100D20001AD80346124A0B4307D4401A02D3EFF3F2
:100D3000008010BDEFF3008010BD081A03D3EFF35D
:100D40000080904305E0EFF3008001219043C90744
:100D5000084380F3008810BD0D231B041A4204D001
:100D60001146002000F02DF810BD00F041F810BD34
:100D700000000090754600F043F8AE460500694655
:100D80005346C008C000854618B020B5FFF722FAC8
:100D900060BCB64600260027C0C5C0C5C0C5C0C5DA
:100DA000C0C5C0C5C0C5C0C5403D490849008D4645
:100DB000704710B50446C046C0462046FFF7CBF941
:100DC00010BDC80212D54803400F002804D0C80344
:100DD000C043012188407047EFF300800001000903
:100DE00003210907084380F30088704700207047FB
:100DF00010B5024800F008F810BD00000000C07FE8
:100E000000487047A800002010B50C461107090FD4
:100E1000092904D00A290AD008290CD104E0114676
:100E20000820FFF7CEFF06E0510606D501E0510687
:100E300001D50120C007214610BDD10607D501010B
:100E40000909CC084907000E0006044309E0410FD8
:100E500020024907000A0143200E00061D22D1414D
:100E600001430846E7E7000001491820ABBEFEE752
:100E70002600020070470000F0B583B0B64C022196
:100E8000204600F0D9F9002807D00221204600F0C2
:100E9000B4F9B248802101F041FC0121204600F064
:100EA000D3F9002800D155E1AD4E30787E281BD80B
:100EB000AF4DA87E01F0A0FFB1490A681018086084
:100EC0002020285C01F098FFAF490A6810180860DC
:100ED0002220285C01F090FFAD490A6810180860D4
:100EE0003078401C307031E17F2829D1A44D28682A
:100EF000C0092860A4480168C9090160A4480168C4
:100F0000C909016054249A4F385B002800D1FEE0E3
:100F10000121914800F05AF9385B8F4C298840181C
:100F200081B2002520462A4600F063F9798BA64855
:100F3000425D914200D1E0E02D1D282DF8D1E1E085
:100F4000606D80B2FFF785FC02460B4685488649F6
:100F5000FFF704FAFFF7C4F9844F38604220844C4D
:100F6000205AFFF77EFC05460E46207E01F044FF26
:100F7000FFF777FC02460B4628463146FFF774FC24
:100F800005460E463868FFF793FD02460B46284695
:100F90003146FFF769FC0024764B2246FFF764FCDC
:100FA000754B2246FFF760FCFFF7FCFB73490860B6
:100FB0006F4DA87E01F020FF06464420285AFFF717
:100FC00050FC07460D466E480068301AFFF749FC92
:100FD00002460B4638462946FFF746FC05460E46B4
:100FE00062480068FFF764FD02460B46284631461A
:100FF000FFF73AFC22465F4BFFF736FC029422468D
:101000005D4BFFF731FCFFF7CDFB5E4F38602020D2
:10101000574D285C5C490C6801F0EEFE201A5B49D4
:1010200008602220285C5A490C6801F0E5FE201A6D
:10103000584E306001F04CFF01F026FF5220295A33
:101040003A6846488A4204DD002101F05DFB424CCB
:101050007CE02C460121019101F056FB4E480078BE
:1010600041424E48817000F05DFC58272946E05B04
:101070000228394C6AD3001F022833D8434800683D
:10108000474D288030686880284600F09BF906208C
:10109000285E444C0821695E0422404B9A5E07C4D6
:1010A0000C3C204600F0C0FEE0683F4D28802846FA
:1010B00000F060FE21693D4E3180304600F05AFE5E
:1010C0003B484824295F029A4261816100F09AF905
:1010D0003848C1693848325F1F4C4161826100F075
:1010E00091F92349C85B019EB043022814D13348CB
:1010F0000299C1603248008814E040198178204686
:1011000000F06DF802210122204600F0A5F83078A9
:10111000401C3070104C19E02548C0692749C86050
:101120002548C069254D28611C48808828812846AB
:1011300000F07EFD234FFE732868696803C7083FEF
:10114000384600F011FF384601F0C2FD012120466B
:1011500000F05AF803B0F0BD00240140002C01401B
:1011600040050020333333333333B34004060020CB
:1011700014000020000059400000303F000600200D
:101180000805002004050020F8040020F4040020D5
:1011900000050020FC04002008000020540100206D
:1011A000BA040020240500209C010020E801002052
:1011B000100100204402002030010020DC04002047
:1011C000B00400204C050020EC4100084A1E91416B
:1011D0004900426802239A435118416070470F2228
:1011E0001203836893438360090382680A43826021
:1011F00070470904891801617047012900D0022154
:1012000042690A4342617047012900D002214269C4
:101210000A43426170474A1E9141426801239A4342
:101220005118416070474A1E914189008268042329
:101230009A43511881607047491E4A1E9141426984
:10124000CA40012010407047491E4A1E9141426920
:10125000CA400120104070478368012905D101214F
:10126000002A05D00B43836070470221002AF9D180
:101270008B4383607047000042680B4B1340436010
:101280004A680B68134342681A4342608268074BFE
:10129000134083600A694B69134389681943826864
:1012A0000A4382607047C0460FBCFFFF8FF1F9FF11
:1012B00010B50F229202446894434460102B00D270
:1012C0009B0242681A43426001228A40C3689343EA
:1012D000C360C3681343C3600804800F04D00E4882
:1012E00001680C220A43026010BDC0464A1E9141AB
:1012F00009020122120283689343591881607047E2
:101300000C2100280A4600D10246034803688B439B
:10131000134303607047C04604240140F0B581B018
:101320000925EC06082102262046324600F0D2FAB2
:1013300020462946324600F0CDFA0A2120463246A0
:1013400000F0C8FA1D4D0D212846324600F0C2FAC1
:101350000E212846324600F0BDFA0F2128463246BB
:1013600000F0B8FA6E46304600F0CAFA1448009011
:101370002046314600F066FA012778023080204688
:10138000314600F05FFAB80230802046314600F066
:1013900059FA780330802846314600F053FAB803F2
:1013A00030802846314600F04DFAF8033080284658
:1013B000314600F047FA01B0F0BDC04600040048D5
:1013C0000001031810B50021415EC1800222825E37
:1013D000520052180849094B9A4203DB054B53430C
:1013E0009B0A00E04B1C064CA24200DC194601811E
:1013F00010BDC0464F020000FF7F00003B22FFFFF0
:10140000C5DD000010B541698269891A82684A43C6
:101410000368D318036042684A43D213C168CC03FF
:10142000A34203DA0469E403A34200DC0460036816
:10143000DB139A18C2618A4202DC01698A4200DA2F
:10144000C16110BD10B50E4800687D21C90002F0D1
:10145000FFFB411E080E00D0FEE70A480A4A516011
:101460000A490B6803400324A4071B190B600023DF
:101470009360072313600A6802400A6010BDC046EB
:1014800004000020FFFFFF0010E000E020ED00E07E
:1014900081B0009003480099016001680029FCD1E7
:1014A00001B070477805002010B50124600200F0FB
:1014B00037F8002804D0200200F010F802F03EFABD
:1014C00010BD10B50124600400F02AF8002804D0F3
:1014D000200400F003F802F031FA10BD0F49086053
:1014E0007047C046026801239A430A43026070476E
:1014F00080B50168012291430160002101604160D3
:101500008160C160C0B20838052102F0A1FB0F2143
:101510008140024802680A43026080BD0400024024
:10152000024909680840411E884170470000024096
:10153000002A03D002680A430260704702688A43A7
:1015400002607047B0B5114A144610340368234056
:101550000C7A8D7D25430C7C2C434D7C25434C8A95
:101560002C438D8A25430C8B2C434D8B2543ACB2E9
:101570001C430460036813408A8B1A430260CA68E4
:1015800042600A6882604968C160B0BDFF7FFFFFAA
:10159000F0B58BB001931746029104460125284609
:1015A000294600F0D1FD2046FFF7A2FF03AE3046EA
:1015B00000F01CF82020B0750020B0823072099035
:1015C000E80307900198069004970298039020463C
:1015D0003146FFF7B7FF022120462A46FFF7A8FF52
:1015E00020462946FFF77EFF0BB0F0BD0021818326
:1015F0008161017201604160C16001618182817518
:1016000070470000F0B587B00E4605460127FC0282
:10161000204602F01DFB31464143A14200D0FEE7C7
:1016200033463946059000264F4FA3423046049773
:10163000069327D805980128019000D801915808F1
:101640000390012800D803910020B14A3C46009045
:1016500019464343DB1904930229039B02940FD3D9
:101660002188914204D15B1EA41C002BF8D108E014
:10167000069B029CE418401C01998842E8D101E0D5
:101680000098069B0599814200D0049E81421ED19C
:101690001C4600F0CBF8384600F06CF800F096F8E5
:1016A00000F0C4F8314800F065F800F08FF800F061
:1016B000BDF8640852D000262988384600F08EF81C
:1016C000AD1CBF1C761CB0B2A042F5D346E0274C3F
:1016D000E01A864217D11F4600F0A8F8204600F015
:1016E00049F800F073F800F0A1F87C0836D0002724
:1016F0002988304600F072F8AD1CB61C7F1CB8B2C9
:10170000A042F5D32AE01A48C01A05901C4600F002
:101710008DF80598864214D1384600F02BF800F079
:1017200055F800F083F8640818D00027298830465F
:1017300000F054F8AD1CB61C7F1CB8B2A042F5D323
:101740000CE064080AD000272988304600F046F8EB
:10175000AD1CB61C7F1CB8B2A042F5D300F036F821
:10176000069807B0F0BDC04600780008007C00086D
:101770000080000810B518490B68022213430B6063
:1017800048600868402303430B600F4B0C1F206820
:10179000C00708D120684007104607D42068C0065B
:1017A00003D5032002E0012000E004205B1C012897
:1017B00001D1002BEAD100220A6034212160002BE4
:1017C00000D1052010BDC04601F0FFFF02480168AE
:1017D00080220A43026070471020024010B5124A6E
:1017E000546801231C435460018000211068C00725
:1017F00018460AD11068400704D41068C00603D503
:10180000032002E0022000E004204C1C012802D149
:101810000E292146EAD100215160342111600F2C9C
:1018200000D1052010BDC0460C20024002480349EB
:1018300001600349016070470420024023016745AD
:10184000AB89EFCDF0B583B0CB780F221C46029266
:101850001440DD06019301D58D782C4300910A8850
:101860000026374603E0361D7F1C082F0CD0154696
:10187000FD40ED07F7D02546B540029BB340016817
:10188000994329430160EEE70099098800910D0A08
:101890000026374603E0361D7F1C082F0CD0294652
:1018A000F940C907F7D02146B140029BB3404268D6
:1018B0009A430A434260EEE70199482903D0282958
:1018C00006D1143000E010300168009A1143016025
:1018D00003B0F0BDB0B5082901D3242300E02023D4
:1018E000C4584907C90E0F258D40AC438A40224396
:1018F000C250B0BD80680840411E8841704700005A
:1019000002494180024901807047C046020400003C
:10191000FFFF0000002A02D01022815070471422DD
:1019200081507047F0B581B00446807801F084FCA6
:1019300020706178814278D04C4D2A78521CD3B205
:10194000052B00D900222A70494A515C105C88425C
:1019500003D8012805D1062903D1062805D101297C
:1019600003D144480121017007E042480021017081
:10197000AE488079012101F03BFC3F480078002807
:1019800001D03F4800E03D4800682978890061188F
:101990000861002727633B49086010202158226B0B
:1019A00051182163001D2828F8D14E209F4E315A2E
:1019B000354802F04DF94000256B294602F048F900
:1019C000608132490968324A116000B2294A1178AF
:1019D000002900D140422F4908605820305A012880
:1019E00009D820782249085C2B490870154601F077
:1019F00093FA2A4611E0414820817D20C003294600
:101A0000154602F025F92A46E0802078400020188B
:101A1000808E3F4909880818A0801078012800D0DE
:101A2000F8431E490A6810180860194800681749E9
:101A30000968081AFB2802D31648002101602078A3
:101A400060700820215EE08802B2891A0BD4582207
:101A5000764B9A5A022A06D32181022161564143CC
:101A6000A0880818A08001B0F0BDC04698010020F1
:101A700014440008640500200900002034040040DC
:101A8000340000400C010020008793032005002053
:101A90000C0500206805002094000020D0040020E0
:101AA000B0B504461348007801F0C6FB2070124917
:101AB000E18622463432114B93811149114DA163C5
:101AC000E5631149216300212173A3600523E380AD
:101AD0000123A37060700D4800784000105A0C4A32
:101AE00012881018A08010340A486050091D20295F
:101AF000FBD1B0BD08000020A8AA0000AA2A00005F
:101B0000000052D55455FF7F60EA000054010020C8
:101B10000801002010270000F0B589B00291039061
:101B200000240126F24F254602E0E41C2A2C1BD09B
:101B30003448005D7988091A4A424A41398881420D
:101B4000314600D01146BA88131A5A425A41002928
:101B5000314600D111460129E7D12A490D1969788A
:101B600001F054FEAD78E0E701242046214600F064
:101B7000F9FA02200190214600F0F4FA06AE304650
:101B800000F096FF0027B772378102983080B77057
:101B9000039807900395002D01D0A50700E01A4D8A
:101BA0002846314600F042FF04AE304600F031FED8
:101BB000B7800320000404902846314600F0B0FDB1
:101BC00028460199224600F02AFE2846214600F0C8
:101BD000E6FE04262846314600F072FF40212846E2
:101BE00000F0E6FE2846314600F01AFF8021284624
:101BF00000F0E4FE2846214600F07EFD0398C0B2C6
:101C000009B0F0BD1C44000800040040B0B5C74D49
:101C100028780424214601F0D7FDA878214601F058
:101C2000D3FD2879214601F0CFFDB0BD140000207E
:101C3000B0B504460820205E00F062F8010CA182D5
:101C4000E082E0681621625E424320691423E55E6B
:101C50004543501BC01320602069615E4143E0682A
:101C6000E25E42435018C0136060B0BD01480249B3
:101C70000160704700300040AAAA0000F0B581B0B2
:101C80001C460D460646DA805980988000209860F0
:101C90001046FFF739F80746A81BFFF72DF8014655
:101CA0003846FEF72FFFE06001B0F0BDF0B50F4CF5
:101CB0000F4820610F49E1603222A2600023A36136
:101CC000E36123600C4EB361F3610C4DAB61EB61DA
:101CD0000127FF02676088C632607160B3607D24AF
:101CE000A40118C52A606960A860F0BD1001002039
:101CF000D08AFFFF30750000300100204402002030
:101D000080B2820B022151408009C0467944097992
:101D100049008F44011F0C15C1B24800144A105AE3
:101D20004042FF234B405900515A49421BE0C1B287
:101D300048000F4A105AFF234B405900515A12E0F5
:101D4000C1B2FF2048404000094A105A4900515A88
:101D5000494208E0C0B24100054A515AFF234340BE
:101D60005800105A404289B2000440187047C046DB
:101D70001442000810B58178202901D30021817018
:101D800081784A0082180423D35E0024045F948083
:101D9000426C1219D21A530948240353491C81700A
:101DA000426410BD10B50446001D4021FEF791FAB3
:101DB0004820002121526164A170218010BD80B5AE
:101DC00082B001AA0123937051701070104600F088
:101DD00003F802B080BD000070B501788278002A57
:101DE00015D0FC220A400D4BD4588D07ED0EFF266E
:101DF000AE40B44340788001C0B2A8402043D050E8
:101E00001F200840012181400548016070BD1F204E
:101E10000140012088400349086070BD00E400E0F3
:101E200000E100E080E100E070B504460820205E9B
:101E3000FFF766FF01B200140CCC054655430E4671
:101E40005E43751BED134A4343439A18D2136260F5
:101E5000A560E060216170BDF0B581B0451A3648DB
:101E6000017869433D48026889180160354A146861
:101E7000324A1678A142224603DA334A1268914266
:101E800000DC026037490F680D606E430068642112
:101E900001F000FF8019E91B294A12784A43801893
:101EA00029490A689042014600DC1146A04200DC44
:101EB0000C46204601B0F0BD80B529490A681318C8
:101EC0000B60204800688342024607DC1E48006819
:101ED00083421A4600DC0246834200DA08604A2048
:101EE000F549085A50437D21490101F0D3FE80BDD8
:101EF000140000205820F049085A012804D0032873
:101F000012D10C48BC4902E07D20410108480A4A30
:101F100064231370094A32231370094AC8231370CB
:101F2000084A1160084908607047C0461400002044
:101F300060F0FFFFC063FFFF0100002002000020EF
:101F4000000000200C0000201000002003480021A9
:101F5000016003480160034801607047600500208C
:101F60004405002010050020F0B585B04468002627
:101F7000002C01DA354600E00125039001686B4A28
:101F80004A43D7136310BB4200DCAD1CF9184A1E4C
:101F900000D52D1D0195681E05283546049621D8CB
:101FA000DE1B820001A39A589746C046C51F000851
:101FB000CB1F0008D11F0008D71F0008DB1F000837
:101FC000E11F000835460E460CE066420D4609E06A
:101FD0007542264606E0654204E04E42254601E091
:101FE00076424D42029010210398475EAA190121C2
:101FF000C9038A1A53103C465C43E2138C4204988E
:1020000000DB10467C1E974200DC204600905B19E6
:102010003D465D43EA138D42049D029800DB154660
:10202000974200DC25469B197B43DA138B42049EC2
:1020300000DB16469742039B00DC2646D97B00292D
:1020400010D001291FD1052824D8C0467844007932
:10205000400087440223292E3339009858811D817E
:10206000019813E0052834D878440079400087446B
:1020700002343C444C54002159810098291A19819A
:10208000361A019802E000269E60019898739E819E
:1020900005B0F0BD00269E600198F7E75E810098CC
:1020A00018812E460198F1E75D810098188101980A
:1020B000ECE75D811E81009E0198E7E7009858815A
:1020C0001E812E460198E1E75E811D81009E0198E8
:1020D000DCE700269E600198D8E70021198100996D
:1020E000701A58816E1A0198D0E700211981009862
:1020F000291A5981361A0198C8E70098291A598176
:10210000301A188100260198C0E7002159810099F2
:10211000701A18816E1A0198B8E70099701A5881E0
:10212000681A188100260198B0E7C046DA6E0000F0
:10213000002101221206016041608160C2604A21D3
:102140005D4A515A01827047054A002903D011683F
:102150000143116070471168814311607047C046A8
:1021600014100240054A002903D011680143116090
:1021700070471168814311607047C0461C100240CF
:10218000054A002903D011680143116070471168A6
:10219000814311607047C046181002401549086815
:1021A0000C2202400C2A01D0144800E012480A68B0
:1021B0001206120F124B9A5CD04009684905490F6C
:1021C000595CC8407047C0460A4908680C22024062
:1021D0000C2A01D0094800E007480A681206120FCD
:1021E000074B9A5CD04009688904490F595CC84084
:1021F0007047C04604100240409C000000127A0064
:1022000095000020F0B585B05E20E0490A5A2B48C1
:1022100000683A4B1B681B1A01A8934202D9284A4E
:1022200000231360274A1278002A43D0C21C0930C9
:1022300001AD254B2B80254B1E689670244B1F68E3
:102240001771244B1B6803704C24095DA970310A77
:10225000D170390A5171204909880A244C431470FD
:10226000190EC170190C8170190A4170210A517040
:1022700000221A49154602E05D1C0C2B10D02B469B
:1022800001AC645D24026240082503E032466D1E05
:102290002C06F1D0560012B2002AF7D54E40F5E7D1
:1022A0000271110A417101A80F2100F0D7FC002032
:1022B0000449087005B0F0BD14000020D8040020C7
:1022C0007C050020B9040020CDAB0000CC04002028
:1022D000C4040020D0040020680500202110000064
:1022E00005480168002902D00168491E01600348C1
:1022F0000168491C01607047780500202005002016
:10230000F0B589B0514E30680122104330607068DA
:102310004F490140716030684E490140316090047E
:10232000316881433160C32000047168814371606A
:1023300030684949014031609F200004B060306836
:1023400002921043306030688007FCD5434C44480B
:102350002060444D28681021014329602868072126
:10236000884328602068401E3F4901F071FC2968BD
:10237000014329607068706070687060032001908C
:1023800000047168814371603068384908403060EA
:102390002368002001461F46039006460491701CE6
:1023A0000590334D039C06E031496D18641C002FE5
:1023B000079206901ED0402C18D008973746284622
:1023C00005991E4601F044FC3346311A00D2C11A69
:1023D0003E46089F8F42304600D806988F422246DC
:1023E00000D8079A8F42DFD30F46DDE70499002912
:1023F00006D009E00027079206900299002903D130
:10240000059804280646C9D1104A1068174B184091
:102410001060079880060699C9B209050143106843
:1024200008431060581C11680143116050680199FD
:1024300088435060506802210143516050680C216C
:1024400001400829FAD109B0F0BDC0460010024091
:102450000CC0FFF8FFFFF6FEFFFF8F000400002016
:1024600000A24A040020024000366E01FFFF0F0068
:10247000001BB70080B58448202100F039F980BDE9
:10248000F0B58DB00E4600900125E8022946FFF711
:1024900077FE0AAF384600F00BFBBD7200243C818A
:1024A0003E8020200190B87000980B90F74E304687
:1024B000394600F0BBFA06AF384600F069FA04204E
:1024C000B870172000013880BC817C8150206D4994
:1024D000085A411E8841C000787207943046394638
:1024E00000F0A8F93046394600F0D2F930463946B6
:1024F00000F0FCF907953046394600F023FA3046E3
:10250000294600F0DBF8304601992A4600F087F9A9
:102510003046294600F0F8F802AE304600F0C5F823
:1025200028033081A803B0815427564AD05B411E4E
:102530008841400370811648029028040390D348D4
:102540003146164600F0A2F8F05B002818D1308E14
:10255000212815D3F08D202812D8C0B2042101F013
:1025600033F90C4D02E0241D102C09D0295DF08DAB
:102570008842F8D129198978C0B201F047F9F2E709
:102580000121C24800F0B8F80DB0F0BD14000020E1
:102590000008000446440008F0B581B058203949CD
:1025A000085ABA4C012834D800256026204629460E
:1025B000324600F009FA042720463946324600F038
:1025C00003FA082100912046324600F0FDF920462A
:1025D00029462A4600F07AF8204629462A4600F085
:1025E0007DF8204639462A4600F070F820463946E4
:1025F0002A4600F073F82046009E31462A4600F035
:1026000065F8204631462A4600F068F800F084FC60
:1026100032E00027702620463946324600F0D4F9D1
:10262000042520462946324600F0CEF908210091C3
:102630002046324600F0C8F9012620463946324687
:1026400000F044F8204639462A4600F047F8204674
:102650002946324600F03AF8204629462A4600F03C
:102660003DF82046009F3946324600F02FF82046BC
:1026700039462A4600F032F82021204600F04EF874
:1026800001B0F0BD14000020002C01400A884B88E6
:1026900013438A881A43CB8813430A891A434B8908
:1026A0001343898919434164704700218181418125
:1026B0000181C18081804180018070474A1E914123
:1026C000426801239A435118416070478A400123B0
:1026D0008B40016A99431143016270470C2906D06F
:1026E0008A4004238B40016A994311430162704779
:1026F00002698A43026170474A1E914102680123C0
:102700009A435118016070474A1E9141C903012242
:10271000D203436C93435918416470474161704739
:10272000B0B50B780222D341032B71D87B441B79BF
:102730005B009F44011835508369F324A3438C78D0
:102740008D882D0125431D438561036A93434A7893
:102750001A4301231343036282690C239A43C97805
:1027600011438161B0BDF3221202836993438A78D9
:1027700012028C88240314431C438461026A2023C0
:102780009A434B781B01134310221A43026203221F
:10279000920283699343C978090219438161B0BDEC
:1027A000C269F3239A438B788C8824011C43144319
:1027B000C46103221202036A93434A7812021A4345
:1027C00001231B0213430362C2690C239A43C97895
:1027D0001143C161B0BDF3221202C36993438A78E9
:1027E00012028C88240314431C43C4610322130384
:1027F000046A9C434B781B032343012424031C439A
:1028000004629202C3699343C97809021943C16102
:10281000B0BD002181800122428001807047002AE2
:1028200003D0C2680A43C2607047C2688A43C2606C
:1028300070470000B0B5826970239A430B78134348
:1028400083610A7A4B781343046A032294431C433E
:1028500004624B684363944B984205D0904B984276
:1028600002D0904B98420FD14B7A8C781C43036A6C
:102870000C25AB43234303624B8989891943120218
:10288000436893430B434360B0BDC046002C0140F6
:10289000B0B507221203836993430A7812021A43E0
:1028A0008261026A30239A430B7A4C781C432301DD
:1028B000134303624A688263344A131F984200D06C
:1028C000B0BD036AC024A3434C7A8D7825432C0104
:1028D0001C4304620320800213688343488989896A
:1028E0000143880018431060B0BDC04670B5C2698E
:1028F00070239A430B781343C36103221302046AC3
:102900009C430B7A4D781D432B02234303624B6893
:10291000C3631E4B1C1FA04200D070BD9402056A09
:10292000A5434C7A8E78264334022C43046210036C
:102930001A68824348898989014308011043186055
:1029400070BDC04610B507221203C36993430A78CD
:1029500012021A43C26103221203036A93430A7AE2
:102960004C78144322031A4302624A680264074AFD
:10297000131F984200D010BD0120800313688343C9
:10298000488980011843106010BDC046042C0140E6
:1029900000218170018041608160818170474A1E01
:1029A0009141C901426880239A43511841607047A0
:1029B000826870239A430A4382607047826880234A
:1029C0009A430A438260704710B501238B40046A22
:1029D0009C4304620223D941032920D87944097910
:1029E00049008F4401070F158169702399431143F2
:1029F000816110BD0721090383698B4311021943CB
:102A0000816110BDC169702399431143C16110BD3B
:102A100007210903C3698B4311021943C16110BD2A
:102A2000826807239A430A43826070470322120296
:102A3000036893430A891A430260184A904209DDE9
:102A4000174A90421CD0174A904219D0164A904219
:102A500007D01BE001229207904202D0134A904215
:102A600014D1026870239A438B78134303600E4A93
:102A7000904205D00A4A904202D00A4A904205D1BB
:102A8000026BFF239A438B7AD21802634A68C262B0
:102A900009888162012141617047C046FF2B0140D6
:102AA0000048014000440140002C01400004004067
:102AB00000210181018081728170C94341607047AA
:102AC000026804239A430A4302607047F0B585B058
:102AD0000D4606460124A0032146FFF751FB600482
:102AE0002146FFF73FFB01AF384600F0E5F8002034
:102AF00038733872B8713020387118207881019697
:102B0000012D01D0694D00E0694D2846394600F09D
:102B100043F82846214600F007F8022128462246BD
:102B200000F008F805B0F0BD826901239A430A431A
:102B30008261704781690223994352000A4382618E
:102B400070470000F0B581B0012100240E4DA94E60
:102B500007E01821285D00F037FEF978241D282CA5
:102B60000FD0285DB28B824202D0F28B8242F5D127
:102B70002F19797800F04AFEB8780028E9D10421AD
:102B8000E8E7C8B201B0F0BD1C4500088068084005
:102B9000411E88417047000070B50D460446C0696B
:102BA0003021884329790143E161E0694421884368
:102BB000A9790143E161E06903218843297A01434E
:102BC000E161A0691821884369890143A161A06975
:102BD00004218843297B0143A1613548844202D006
:102BE000FFF7DCFA01E0FFF7EFFA2968064E3046FE
:102BF00001F02EF8000920622968304601F028F81B
:102C00000F210140616270BD00A24A04C9B2016097
:102C100070470000F0B581B0017800291CD004464F
:102C2000224D234E234F03E06178641C002913D00A
:102C300038780128304600D02846C9B2FFF7E6FFB1
:102C400004E00121FFF7A2FF0028EDD13878012828
:102C50003046F6D02846F4E701B0F0BDF0B581B0BB
:102C6000009100291FD00546104E114F114C03E072
:102C70006D1C0098000416D020780128384600D03A
:102C800030462978FFF7C2FF0098401E009004E00C
:102C90000121FFF77BFF0028EAD120780128384680
:102CA000F6D03046F4E701B0F0BDC0460044004025
:102CB00000380140A5000020002101731822428144
:102CC00001728171302101714B21C901016070478E
:102CD0000821415E044A11600A21415E51600C21C5
:102CE000405E90607047C046342C0140F0B587B01C
:102CF00001277D0228463946FFF742FA0024069450
:102D0000039520200290B80405900194384D01A944
:102D10002846FEF7B1FA28463946FEF784FABE0285
:102D20000F21284622463346FEF7C2FA3846FEF700
:102D3000E7FA28463946FEF76EFA2E4D288B2028F2
:102D400014D8C0B20027394600F03EFD298B4C480C
:102D5000C25D914203D03F1D282FF9D106E0C01972
:102D60004188002222483346FEF7A2FA688B2028C9
:102D700014D8C0B20027394600F026FD698B4048C0
:102D8000C25D914203D03F1D282FF9D106E0C01942
:102D90004188002216483346FEF78AFA288C2028FC
:102DA0001FD8698C20291CD8C0B2214600F00CFD28
:102DB0002220285C214600F007FD314F09E0381938
:102DC000418800220A483346FEF772FA241D282C57
:102DD00007D0385D298C8142F1D0698C8142F5D1D0
:102DE000EDE7012102480A46FEF736FA07B0F0BDCA
:102DF00000240140140000200021214A137883425E
:102E000004D0121D491C0A29F8D10A2188001C4946
:102E10000818408809280CD8784400794000874475
:102E2000040B0F13171B1F232B271648006880B2B3
:102E30007047002080B270471248406880B27047E7
:102E40001048806880B270470E48C06880B27047F2
:102E50000C48006980B270470A48406980B27047E8
:102E60000848806980B270470648C06980B27047E0
:102E70000448406A80B270470248006A80B27047D6
:102E8000EC41000818240140B0B50C4801784029F5
:102E900001D30021017001788A00094B9C58094D2B
:102EA0002D689D50491C0170074801686918091B6D
:102EB0000160881105490860B0BDC046B804002013
:102EC000B003002004050020B4040020C404002046
:102ED000B0B50C480178202901D300210170017898
:102EE0008A00094B9C58094D2D689D50491C017062
:102EF000074801686918091B016048110549086005
:102F0000B0BDC0460C060020800500200006002051
:102F100008060020CC040020F0B581B0A448007859
:102F2000401EA44C052839D84000C046784480880B
:102F300040008744050055008200AF00DD000A0113
:102F4000042500950026204629463246FFF7BEFBA1
:102F5000204629463246FFF7C1FB08256027204658
:102F600029463A46FFF730FD012220462946FFF761
:102F7000ADFB204629463246FFF7B0FB20463146DE
:102F80003A46FFF721FD204631463246FFF79EFBC9
:102F900020463146009AFFF7A1FB02E100252046BA
:102FA00029462A46FFF792FB204629462A46FFF784
:102FB00095FB0426204631462A46FFF787FB20462C
:102FC00031462A46FFF78AFB0826204631462A4624
:102FD000FFF77CFB204631462A46FFF77FFBE0E007
:102FE0000025204629462A46FFF770FB2046294641
:102FF0002A46FFF773FB08276026204639463246EB
:10300000FFF7E2FC012220463946FFF75FFB20462E
:1030100039462A46FFF762FB0427204639463246E6
:10302000FFF7D2FC204639462A46FFF74FFB2046E1
:1030300039463A46FFF752FBB3E008260025204602
:1030400031462A46FFF742FB204631462A46FFF723
:1030500045FB6026204629463246FFF7B5FC012293
:1030600020462946FFF732FB204629462A46FFF72D
:1030700035FB0427204639463246FFF7A5FC20469B
:1030800039462A46FFF722FB204639463A46FFF7E3
:1030900025FB86E004250095002620462946324679
:1030A000FFF714FB204629463246FFF717FB60273F
:1030B000204631463A46FFF787FC0122204631463A
:1030C000FFF704FB204631463246FFF707FB082591
:1030D000204629463A46FFF777FC204629463246E5
:1030E000FFF7F4FA20462946009AFFF7F7FA58E06E
:1030F0000025204629462A46FFF7E8FA20462946B9
:103100002A46FFF7EBFA0426602200922046314659
:10311000FFF75AFC012220463146FFF7D7FA204636
:1031200031462A46FFF7DAFA082720463946009A40
:10313000FFF74AFC204639462A46FFF7C7FA2046E1
:1031400039463246FFF7CAFA2BE00826002520460A
:1031500031462A46FFF7BAFA204631462A46FFF79B
:10316000BDFA04266027204631463A46FFF72CFC7C
:10317000012220463146FFF7A9FA204631462A4669
:10318000FFF7ACFA204629463A46FFF71DFC2046D9
:1031900029462A46FFF79AFA204629463246FFF783
:1031A0009DFA20212046FFF7B9FA01B0F0BDC046D4
:1031B00094000020002C014010B5062141431A4A1A
:1031C000505C431E032B09D80920C0067B441B79A1
:1031D0005B009F4408010507164804E0002010BD6D
:1031E000134800E0114851184988FEF783FB10BDD1
:1031F000B0B50A46062141430B4B585C441E032CD4
:1032000011D80920C006C0467C4424796400A74434
:1032100006010305074802E0054800E00348591885
:103220004988FEF777FBB0BD56440008000C004803
:103230000008004800040048F0B581B005462A4F58
:103240003878FFF7B9FF0446B878FFF7B5FF0646B0
:103250003879FFF7B1FF7100091980000818012DB6
:1032600001D00721081AC0B201B0F0BD10B5012489
:1032700060042146FEF768FFA0042146FEF764FFC4
:10328000E0042146FEF760FF20052146FEF75CFFC3
:10329000154CE088202803D8C0B2102100F094FA21
:1032A0002089202803D8C0B2102100F08DFA60894F
:1032B000202803D8C0B2102100F086FAA08A202866
:1032C00003D8C0B2102100F07FFA608A202803D80A
:1032D000C0B2042100F078FA208A202803D8C0B2B6
:1032E000102100F071FA10BD1400002086B0FEF726
:1032F000A9F800F0AFFA002836D0FFF7B7FFFEF7C5
:1033000085FCF4480068F44900F0A2FC0146F3484B
:10331000FEF702FCF2490870FEF700F84A20F14F70
:10332000385A00242146FFF7ABF80D200121FEF7A3
:1033300046FDFFF7DBFC0C2001942146FEF73FFD24
:10334000FFF700FC0146FD4C21704820385AFFF77A
:10335000BDFB2178FA48012942D1FC49FA4A0123F0
:10336000FEF716F90A2042E0012460042146FEF728
:10337000EBFEA0042146FEF7E7FEE0042146FEF73F
:10338000E3FE20052146FEF7DFFE7D20C40002E0BB
:103390002046FEF77DF8002528460C38C0B24008CC
:1033A0007E2803D8E8B2482100F00EFA681CE9B282
:1033B00020290546F0D32046FEF76AF8002504E0F0
:1033C000681CE9B220290546E2D228460C38C0B272
:1033D00040087E28F4D8E8B2282100F0F5F9EFE79C
:1033E0002830D849D84A0123FEF7D2F80B20012112
:1033F000FEF7E5FCB88A20282DD86420FEF748F8AF
:10340000387D0121FFF7F4FEB87CFFF7D5FE0028D8
:1034100021D0788A20281ED8388A20280FD8C0B218
:103420000121FFF7E5FE02242046FEF731F8387C43
:103430000021FFF7DDFE2046FEF72AF801E000BF7D
:1034400000BFFEF713FCB87CFFF7B6FE002802D0E1
:10345000788A2128E0D3388A202811D80525387C9D
:103460000121FFF7C5FE32242046FEF711F8387C13
:103470000021FFF7BDFE2046FEF70AF86D1EEED1D3
:10348000B3480121FDF732FFB2A0FFF7C3FBB548F7
:10349000FEF74EFE4B2080007D214901B24B0A46CB
:1034A000FEF7ECFBB148FEF7FBFAFEF7FFFBB04876
:1034B000FEF778FCAF48FEF775FCAF48FEF772FCEC
:1034C000FEF718FDB84DBB4CBB4E01E0FEF7CEFB3E
:1034D000F988202900D9ABE03889202800D9A7E055
:1034E0007889202800D9A3E005915C203C5A204629
:1034F000FDF70AFC06465A203F5A381BFDF7FCFB35
:103500009E49FDF7FFFA05469D4900F04FFD314603
:1035100000F0B2FCFDF7A6FB02902846994900F0A6
:1035200045FD314600F0A8FCFDF79CFB03902846C2
:10353000954900F03BFD314600F09EFCFDF792FB03
:1035400004902846914900F031FD314600F094FC8A
:10355000FDF788FB02468E48381880B28D498842B4
:1035600025D88D48844222D38C4884421FD8A74254
:103570001DD9144628468A4900F018FD314600F04E
:103580007BFCFDF76FFB87490A680A2151438142A2
:103590002ADD0598C0B200242146FFF729FE664FB8
:1035A000387A0121FFF724FEB87A214616E0624FEF
:1035B0003878FFF701FE01460598C0B2FFF718FE04
:1035C0003C7AB878FFF7F8FD01462046FFF710FE79
:1035D000BC7A3879FFF7F0FD01462046FFF708FE78
:1035E000714D744C744E23E0A142534F6E4D724E98
:1035F0000CDD0598C0B20021FFF7FAFD387A0124EE
:103600002146FFF7F5FDB87A21460EE00498814285
:1036100045DD0598C0B200242146FFF7E9FD387A60
:103620002146FFF7E5FDB87A0121FFF7E1FD614C86
:10363000388A20280FD829785C4A1378002B0A464C
:1036400000D11A465A4B1B78092B00D81146C9B233
:10365000C0B2FFF7CDFD20683168081A022803D3F5
:1036600000F056FA30682060544801683068411A0A
:10367000534A914205D3514908602878414241415B
:103680002970B88A202800D920E7788A202800D914
:103690001CE7C0B2FFF790FD002825D116E703987C
:1036A000814208DD0598C0B201242146FFF7A0FD44
:1036B000387A0021A5E70298814203DD0598C0B25F
:1036C000012102E029780598C0B2FFF791FD387A10
:1036D000002495E70400002040420F00FFFF000097
:1036E0000900002014000020364801990160416063
:1036F0008160388A202815D80325387C0121FFF7FE
:1037000077FD96242046FDF7C3FE387C0021FFF7A5
:103710006FFD2046FDF7BCFE6D1EEED102E000BF3E
:10372000FEF7A4FAB87CFFF747FD0028F7D1387DF3
:103730000021FFF75DFDFEE714000020A50000203A
:1037400030000240044400406C0500200438014071
:103750000024014068656C6C6F20576F726C640ABE
:103760000D0000004C050020340200205401002010
:103770009C010020E8010020640200200000C842F3
:10378000000020410000A0410000484200007042BB
:10379000DFB1FFFFC6AF0000214E0000E7FD0000D3
:1037A00000008C4200060020C80400201D050020F7
:1037B0001C0500201805002020050020140500200D
:1037C000BD020000342C0140B0B5062343431D4C1C
:1037D000E05C421E032A16D80920C0067A441279FA
:1037E0005200974406010305194802E0174800E01B
:1037F0001548054AD17003219170E118498811805C
:103800001146FEF71FF8B0BD50010020B0B50A46C2
:10381000062141430B4B585C441E032C11D8092050
:10382000C006C0467C4424796400A7440601030511
:10383000074802E0054800E0034859180979FEF7F7
:1038400049F8B0BD56440008000C00480008004884
:1038500000040048F0B5A1B000203549A34A0B464A
:10386000C5010C466E187F25ED435F198021795AFA
:10387000914202D1AD1CF8D108E08033401C1028E1
:103880002146EDD110202B4C264600E0294C102873
:1038900000D10026002E16D02548864201D0803E59
:1038A000344611A8402521462A46FCF7B5FC655D43
:1038B000204640304678423401A83E222146FCF79B
:1038C000ABFC300246191C4886422DD1D44C11A9BC
:1038D000402520462A46FCF79FFC6653204642308E
:1038E00001A93E22FCF798FC6088012100222128D2
:1038F0000B4600D3134620882128084600D31046E3
:103900001840A388212B0B4600D313461840A38BE5
:10391000212B0B4600D313461840E38B212B00D3F9
:103920001146084021B0F0BD002021B0F0BDC046D6
:1039300000780008807F0008ABDC0000F0B581B0A3
:1039400000216648435E664A1278002B04D52F2A70
:1039500000D0C0E00023038003881CB2614D2A55CB
:103960005A1C0280002B00D1B5E093B2022B0DD17E
:103970005C48407861490870022831D0012832D073
:10398000002800D0A7E0584808212EE013B2564A7C
:103990001278934200DA9EE0544C04805819831E3A
:1039A0001B78401E00780002C018032A21D3511949
:1039B000C91E00234E4A2E4602E0661C8C4217D0D8
:1039C0003446367836027340082603E03B46761EBE
:1039D0003706F2D05F001BB2002BF7D55740F5E752
:1039E00041480F2101E040480B21017001B0F0BDBA
:1039F00099B288426FD14C20894E305AA9788842BA
:103A000069D13C4A10683C4F38603C480078022835
:103A100005D0012850D0002858D168794DE0E878C9
:103A20002979090208186979AA791202511809043A
:103A30000C180021204600F011FA00280DD1304961
:103A4000204600F000FA002807D12E49204600F059
:103A5000ADFAFDF707F95A217052E879297A09027F
:103A60000818697AAA7A1202511809040C18002160
:103A7000204600F0F3F900280DD12149204600F03E
:103A8000E2F9002807D11F49204600F08FFAFDF720
:103A9000E9F85C217052E87A032807D8582170525F
:103AA000FEF754FAFEF726FAFEF776FD5C48802111
:103AB000FDF7A8FD0F4A09E0E879134908700420D2
:103AC00028560002E97840185B4908600F48012138
:103AD00001701068386001B0F0BDC046D404002009
:103AE0006C050020B0020020D6040020FFFF00007B
:103AF0002110000020050020D8040020D704002059
:103B00000000704200007A440D060020B904002035
:103B1000F0B581B0002441480057002801D401B01D
:103B2000F0BDFEF76FFB5C203D4E305A3D49411819
:103B30003D4A91420CD83D4909680A224A438242D3
:103B400006DA3B480178092948D8491C017001E090
:103B50003748047039480078394D00281FD039485B
:103B6000046028462146FEF7CFFD3648006801274D
:103B70000028394600DCE143334A1170FCF769FE46
:103B8000FA079143FCF70EFE304908805821715A1C
:103B90000129C4D86863A863E86301B0F0BD582068
:103BA000305A0328E1D8C046784400794000874461
:103BB00021012D011F4801681F4F3868FEF74CF99D
:103BC000322100F067F8FEF777F91E49086038687F
:103BD0000028CAD10C60FEF7B9F9C6E7164800689C
:103BE0000028B7D1134800686328B3DC13480121CB
:103BF0000170AFE74A20315A0F48006848437D21E1
:103C0000C90000F047F80F490860AEE70A480068AD
:103C1000282141430B480160A7E7C046400500202A
:103C200014000020DFB1FFFFC6AF00000006002037
:103C30001C050020680500207C0500201D050020D3
:103C4000002C01404805002008000020B00400209E
:103C500043088B421AD3002203098B4279D3030A0B
:103C60008B425ED3030B8B4242D3030C8B4227D390
:103C70000902FF2212BA030C8B4202D3121209026C
:103C800003D0030B8B4233D31AE0D3E0411A8041B7
:103C9000401C704703460B4371D443088B42F5D355
:103CA000002203098B4254D3030A8B4239D3030BFE
:103CB0008B421DD3030C8B4202D394466EE0090A5B
:103CC000C30B8B4201D3CB03C01A5241830B8B42EF
:103CD00001D38B03C01A5241430B8B4201D34B03D8
:103CE000C01A5241030B8B4201D30B03C01A52413D
:103CF000C30A8B4201D3CB02C01A5241830A8B42C2
:103D000001D38B02C01A5241430A8B4201D34B02AA
:103D1000C01A5241030A8B4201D30B02C01A52410E
:103D2000CDD2C3098B4201D3CB01C01A52418309C2
:103D30008B4201D38B01C01A524143098B4201D3FC
:103D40004B01C01A524103098B4201D30B01C01A27
:103D50005241C3088B4201D3CB00C01A52418308A1
:103D60008B4201D38B00C01A524143088B4201D3CE
:103D70004B00C01A5241411A524110007047CA0FFD
:103D800000D04942031000D34042534000229C46D9
:103D900003098B422DD3030A8B4212D38901FC22E3
:103DA00012BA030A8B420CD3890192118B4208D3B9
:103DB000890192118B4204D3890137D0921100E01E
:103DC0008909C3098B4201D3CB01C01A524183092F
:103DD0008B4201D38B01C01A524143098B4201D35C
:103DE0004B01C01A524103098B4201D30B01C01A87
:103DF0005241C3088B4201D3CB00C01A5241830801
:103E00008B4201D38B00C01A5241D9D243088B4256
:103E100001D34B00C01A5241411A00D2014652410F
:103E2000104663465B1000D34042704763465B1008
:103E300000D3404201B50021004201D0C9430846E9
:103E4000C046C04602BD10B500F05CF8EFF300803C
:103E5000800001D5012010BD002010BD10B500F07C
:103E60007BF8EFF300804000800F012801D0012093
:103E700010BD002010BD000070B50125ED07040045
:103E80004C4020D4441A01D2001B0919C60D4B0026
:103E9000F2B2FF2A29D01B0E2CD000020C022843BC
:103EA0002C43D31ADC40051910D2280A02D3401C37
:103EB0006D0611D0761EF6058019FF2A00DA70BD56
:103EC000C00DC00570BD694000F0CEF8012005436B
:103ED000C541521C761CE8E764089C40C90161405A
:103EE0008900E7D10124A043E4E71B0E440200D07F
:103EF000034870BD002AFCD1C00FC00770BD00BFD1
:103F00000000C07F0123DB0502000A430DD4DA4222
:103F100003D49A4207D488427047D84214D4D94275
:103F200012D48842704780427047DA4203D59A42E1
:103F3000F9D5814270475B004200DA4204D24A0060
:103F4000DA4201D28142704710B5024AFCF7E0FE26
:103F500010BD00BF090013040123DB0502000A4362
:103F60000DD4DA4203D49A4207D488427047D8422B
:103F700014D4D94212D48842704780427047DA4242
:103F800003D59A42F9D5814270475B004200DA427C
:103F900004D24A00DA4201D28142704710B5024A87
:103FA000FCF7B6FE10BD00BF0900160470B5420054
:103FB00064414B005C41120E39D01B0E38D0FF2AF1
:103FC0003CD0FF2B3AD0D2187F3A40024902400A37
:103FD000490A4518ED0106004E43000A090A484304
:103FE0000104731A4019190C4318990F04D05B0887
:103FF000012149075B1A521CD80904D3401CF50360
:1040000001D19D0607D0FF2A08D2D50506D0E407C6
:104010002043401970BD0125A843F4E7002A01DCC4
:10402000E00770BD2402FF202043C00570BD1B0EB9
:10403000FF2A03D0FF2B01D0E00770BDFF26360614
:104040004500B54206D84D00B54203D8D218FF2A24
:1040500000D0E7E7004870BD0000C07F70B50125C3
:10406000ED0704004C4022D4441A02D26C40001BDD
:104070000919C60D4B00F2B2FF2A4BD01B0E50D0CF
:1040800000020C02A8432C43D31ADC40051B05D5C3
:10409000AD0019D36D08761E521E37D0F605280ADA
:1040A00001D2801970BD70416D0603D070BD6940AA
:1040B000FFF7E8FE9C4009026140490001D0401E24
:1040C00070BD0124A04370BD6D081DD001202B0CD4
:1040D00001D12D0410302B0E01D12D0208302B0FF1
:1040E00001D12D01001DAB0F01D1AD00801CEB0FE4
:1040F00001D16D00401C361A121A6D00680AF505D0
:104100004019012A02DB70BD002070BDC036300AA4
:10411000C00770BD1B0E440201D1FF2B00D1024825
:1041200070BD002AF0D070BD0000C07F80807F7E0F
:104130007D7C7B7A7978777676757473727171701D
:104140006F6E6E6D6C6C6B6A6A69686867666665CF
:104150006464636362616160605F5F5E5E5D5D5C5D
:104160005C5B5B5A5A5959585857575656555555CE
:104170005454535352525251515050504F4F4F4E2E
:104180004E4D4D4D4C4C4C4B4B4B4A4A4A4949497C
:1041900048484847474747464646454545444444BE
:1041A00044434343434242424241414181828384EA
:1041B00085868788898B8C8D8E8F91929395969723
:1041C000999A9C9D9FA0A2A3A5A7A8AAACAEB0B2A5
:1041D000B3B5B7B9BCBEC0C2C5C7C9CCCED1D4D7A0
:1041E000D9DCDFE2E6E9ECF0F3F7FAFE00000000CC
:1041F00001000100020002000300030004000400AB
:104200000500050006000600070007000D00080075
:104210000E0009000000C90092015B022403ED03B7
:10422000B6047F0548061107D907A2086A09330AB0
:10423000FB0AC40B8C0C540D1C0EE30EAB0F72105A
:104240003A110112C8128F1355141C15E215A81645
:104250006E173318F918BE19821A471B0B1CCF1C96
:10426000931D571E1A1FDD1F9F2061212322E52267
:10427000A62367242825E825A82667272628E528D9
:10428000A329612A1F2BDC2B992C552D112ECC2E06
:10429000872F4130FB30B5316E322633DF33963411
:1042A0004D350436BA366F372438D9388C39403A10
:1042B000F23AA53B563C073DB83D683E173FC53F27
:1042C00073402141CE417A422543D0437A4424456C
:1042D000CD4575461C47C34769480F49B449584AFC
:1042E000FB4A9D4B3F4CE04C814D204EBF4E5D4FF5
:1042F000FB4F97503351CE51685202539B53325467
:10430000C9546055F5558A561D57B0574258D35871
:104310006459F359825A0F5B9C5B285CB35C3E5D29
:10432000C75D4F5ED75E5D5FE35F6860EB606E61A7
:10433000F0617162F1627063EE636C64E8646365FE
:10434000DD655666CF664667BC673268A668196940
:104350008B69FD696D6ADC6A4A6BB76B236C8E6C86
:10436000F86C616DC96D306E966EFB6E5E6FC16FDD
:1043700022708370E27040719D71F9715472AE7257
:1043800007735E73B5730A745F74B2740475557500
:10439000A575F37541768D76D87622776B77B377EE
:1043A000FA773F788478C77809794A798979C87922
:1043B000057A417A7C7AB67AEE7A267B5C7B917BB1
:1043C000C57BF87B297C597C887CB67CE37C0E7DA0
:1043D000397D627D897DB07DD57DFA7D1D7E3E7EF5
:1043E0005F7E7E7E9C7EB97ED57EEF7E097F217FBB
:1043F000377F4D7F617F747F867F977FA67FB47FF5
:10440000C17FCD7FD87FE17FE97FF07FF57FF97FA6
:10441000FD7FFE7F00030504010206000004010188
:1044200002010202010601000701000D0100100750
:10443000011107011207011304011702011A0601F5
:104440001B06011C060104000300060002000A000E
:104450000700190002000100010000000100020035
:104460000100010004000200010008000300010037
:1044700010000400010020000500010040000600BB
:10448000010080000700010000080B00010000107F
:104490000C00010000200D00010000400E00010092
:1044A00000800F0002000100000002000200010075
:1044B00002000400020002000800030002001000D5
:1044C0000400020020000500020040000600020077
:1044D000800007000200000108000200000209003D
:1044E000020000040A00020000080B000200001095
:1044F0000C00030000200D00030000400E0003002C
:1045000000800F0004000100000004000200010010
:10451000040004000200040008000300100301016D
:104520001103000113000101140000010201010246
:1045300003010002060300020C0100021404010240
:10454000150400026845000800000020A8000000D3
:104550000401000810460008A8000020680B0000B5
:104560002001000800000000B40A040000A24A0470
:1045700001010000A00F000060F0FFFFFFFFFFFF40
:10458000FFFFFFFFFFFFFFFFFFFFFFFFFFFFFFFF3B
:10459000FFFFFFFFFFFFFFFFFFFFFFFFFFFFFFFF2B
:1045A000FFFFFFFFFFFFFFFFFFFFFFFFFFFFFFFF1B
:1045B000FFFFFFFFFFFFFFFFFFFFFFFFABDC1F0061
:1045C000FA000000004B002001001E0000000A005D
:1045D0002C010100010010A4007DE8030000000090
:1045E00000000000000000000000000000000000CB
:1045F00000000000000000000000000001000000BA
:104600000001020304010203040607080901000077
:04000005080000C12E
:00000001FF
